:020000040800F2
:1000000048200120A1010008D9670008AB010008C1
:100010001F6700085D21000889BF0008000000007C
:10002000000000000000000000000000058D000836
:10003000F539000800000000B7010008919300089E
:10004000BB010008BB010008BB010008BB010008A0
:10005000BB010008BB010008BB010008BB01000890
:10006000BB010008BB010008BB010008BB01000880
:10007000BB010008BB010008D93100085533000856
:10008000BB010008BB010008BB010008BB01000860
:1000900089220008BB010008BB010008BB01000861
:1000A000BB010008BB010008BB010008BB01000840
:1000B000BB010008BB010008BB010008BB01000830
:1000C000BB010008BB010008BB010008BB01000820
:1000D000E5860008A19F000889A10008ADA20008DC
:1000E000054F0008BB010008BB010008BB01000868
:1000F000BB010008BB010008BB010008BB010008F0
:10010000BB010008BB010008BB010008BB010008DF
:1001100065980008A9990008BB010008BB01000808
:10012000BB010008BB010008BB010008BB010008BF
:10013000BB010008BB010008BB010008BB010008AF
:10014000A9250008BB010008BB0100083D6C0008A0
:10015000BB010008BB010008BB010008BDA30008EB
:10016000BB010008BB010008BB010008BB0100087F
:10017000BB010008BB010008BB010008BB0100086F
:10018000BB010008BB010008DFF810D000F010FE32
:100190000048004755100108AFF3008048200120B7
:1001A0000648804706480047FEE7FEE7FEE7FEE711
:1001B000FEE7FEE7FEE7FEE7FEE7FEE7A1930008A5
:1001C00089010008F0B50021012200230024002548
:1001D0008E4E76788D4FBF7846EA0726C6F30A061C
:1001E0008B4F3E80894EB678F610884FFF7846EAEE
:1001F0004716C6F30A06864F7E80844EF678B611FF
:10020000824F3F7946EA8706804F7F7946EA872604
:10021000C6F30A067E4FBE807C4E767976107B4F01
:10022000BF7946EAC716C6F30A06794FFE80774EB5
:10023000B6793611754FFF7946EA0716C6F30A06F6
:10024000734F3E81714EF679F611704F3F7A46EA50
:1002500047066E4F7F7A46EA4726C6F30A066C4F7A
:100260007E816A4E767AB610684FBF7A46EA871664
:10027000C6F30A06664FBE81644EB67A7611634FA6
:10028000FF7A46EAC706624FFE81604E367B5F4FBB
:100290007F7B46EA0726C6F30A065D4F3E825B4E29
:1002A000767BF610594FBF7B46EA4716C6F30A061F
:1002B000574F7E82554EB67BB611544FFF7B46EAB0
:1002C0008706524F3F7C46EA8726C6F30A06504F00
:1002D000BE824E4E367C76104C4F7F7C46EAC71667
:1002E000C6F30A064A4FFE82484E767C3611474FC7
:1002F000BF7C46EA0716C6F30A06454F3E83434EC7
:10030000B67CF611414FFF7C46EA47063F4F3F7DE2
:1003100046EA4726C6F30A063D4F7E833B4E367DAE
:10032000B6103A4F7F7D46EA8716C6F30A06384F65
:10033000BE83364E767D7611344FBF7D46EAC706C2
:10034000334FFE83314EF67D3E8400200AE0304E6E
:1003500036F8106006F5FA7636B22D4F27F81060A1
:10036000461CF0B21128F2DB294EB6F92060B6F532
:10037000FA7F06D0264EB6F9206040F2F717BE424B
:1003800003D10026234F3E7002E00126214F3E702C
:10039000F0BD30B505462048007810B1012832D1B3
:1003A00010E00F2D0DD100201C490870084601787F
:1003B0000078401C194A107019484554012016490C
:1003C000087020E0154801780078401C134A10702E
:1003D0001348455410460078192813DB1048007E56
:1003E00058B9002405E00E48005D08490855601C16
:1003F000C4B2192CF7DBFFF7E5FE002006490870B0
:100400000649087000BF00BF30BD0000360D002057
:10041000500D0020740D0020760D0020770D002077
:100420001C0D0020DFED300AB5EEC00A60EE200A98
:10043000BDEEE01A11EE100AF1EE10FA38BF401EC0
:1004400000EE100A9FED291AB8EEC00A70EEC00A3D
:1004500020EE810ABCEEC00A10EE100A00EE100A6F
:100460000028B8EEC00A10EE810AB8BF002004DBF5
:10047000B0F5807FC8BF4FF480701D4960EE000A60
:10048000B6EE001ADFED1C2A9FED1A2A60EE011A63
:1004900060EE225A20EE813A20EE022A21EEA01AC6
:1004A00001EB800073EE655A62EE202AB7EE006A17
:1004B00033EE003AD0EC043A76EE611A71EE600A3F
:1004C00035EEE20A33EE413A32EEC21A70EEA10A7C
:1004D00020EE230A64EE831A04EE200A45EE011A88
:1004E00031EE800A7047000083F9223E000080430D
:1004F000CC350108ABAA2A3EABAAAA3EDFED300AF2
:10050000B5EEC00A60EE200ABDEEE01A11EE100A48
:10051000F1EE10FA38BF401E00EE100A9FED291AC6
:10052000B8EEC00A70EEC00A20EE810ABCEEC00A26
:1005300010EE100A00EE100A0028B8EEC00A10EE05
:10054000810AB8BF002004DBB0F5807FC8BF4FF43C
:1005500080701D4960EE000AB6EE001ADFED1C2A1D
:100560009FED1A2A60EE011A60EE225A20EE813ABF
:1005700020EE022A21EEA01A01EB800073EE655AEC
:1005800062EE202AB7EE006A33EE003AD0EC043A6D
:1005900076EE611A71EE600A35EEE20A33EE413A08
:1005A00032EEC21A70EEA10A20EE230A64EE831A1C
:1005B00004EE200A45EE011A31EE800A7047000071
:1005C00083F9223E00008043DC390108ABAA2A3EB1
:1005D000ABAAAA3ED2B201E000F8012B491EFBD221
:1005E00070470022F6E710B513460A46044619463E
:1005F000FFF7F0FF204610BD2DE9FE4F804681EA4F
:100600000300C00F0C46009021F0004123F000458C
:10061000B8EB0200A94105D24046214690461C464F
:100620000B46024623F00040104347D0270DC7F386
:100630000A00C3F30A510290401A019040286BDA75
:10064000C3F3130040F4801B0098924620B10023AE
:10065000D2EB030A63EB0B0B01985946C0F1400241
:10066000504600F034FA06460D4650465946019A67
:1006700000F04CFA10EB08006141002487EA1152A7
:1006800084EAE7731A4340D0009A62B3019A012AC0
:100690004FEA075215DC001B61EB02014FF00042EC
:1006A00002EA0752CDE90042001C41F580113246B2
:1006B0002B4600F083FA03B0BDE8F08F4046214698
:1006C000F9E7001B61EB0201001C41F580130018E3
:1006D0005B412018A2F5001747EB030140EAD570F3
:1006E000B6196D4111E06D084FEA360645EAC0754E
:1006F0004FEA0752001B61EB0201001C41F580111B
:1007000049084FEA30000019514132462B4603B0E8
:10071000BDE8F04F00F043BA0098012240000023EA
:10072000D0EB020263EBE073009821464FEAE074DD
:10073000B8EB000061EB0401E9E783F000435BE7FD
:1007400081F0004158E72DE9FE4F81EA030404F0EF
:10075000004421F0004100944FF0000B23F00043CF
:1007600050EA01045ED052EA03045BD0C3F30A549A
:10077000C1F30A552C44A4F2F3340194A0FB0254B3
:10078000C1F3130141F48011C3F3130343F4801345
:1007900001FB024400FB034E840A970A44EA815499
:1007A00047EA8357A4FB076802958D0A05FB078576
:1007B0004FEA932C04FB0C542705029D4FEA065880
:1007C00047EA1637B5EB08056EEB070C870E920E5D
:1007D00047EA811742EA8312A7FB0201B6EB0B013D
:1007E00064EB00042B0D43EA0C335E1844EB1C5001
:1007F000DA465146E7FB0201C5F313044FEA0B3317
:1008000043EA14534FEA0432019C43EA0603A4F17D
:100810000C040294009CCDE900B400F0CFF903B0C1
:10082000BDE8F08F00200146F9E72DE9F04D81EA9F
:10083000030404F0004B21F0004514464FF0000A79
:1008400023F0004150EA050220D054EA01021DD0F5
:10085000C5F30A570246C5F31303C1F31300C1F3EE
:100860000A5640F4801543F48013A7EB0608101BCA
:10087000D64608F2FD3873EB050002D308F10108F3
:1008800001E092185B41B8F1000F03DA0020014645
:10089000BDE8F08D00204FF48011064684460EE03E
:1008A000171B73EB050705D3121B63EB0503064308
:1008B0004CEA010C49084FEA300092185B4150EABB
:1008C0000107EDD152EA030012D082EA040083EA64
:1008D0000501084305D0101BAB4106D201220023BD
:1008E00006E000224FF0004302E06FF001025310D7
:1008F0001AEB06004CEB085110EB0A0041EB0B0120
:10090000BDE8F04D00F04BB90EB5C10F80EAE070C4
:100910000844CA07002140F233438DE80E000A461E
:100920000B4600F04BF903B000BD0EB540F2334169
:1009300002910021CDE900110A460B4600F03EF974
:1009400003B000BD70B5C1F30A5201F000450024A8
:10095000C1F3130140F2FF3341F480119A4201DAEE
:10096000002070BD40F233439A42A2F2334203DCCE
:10097000524200F0BBF800E090402C43F1D04042DE
:1009800070BD00F0004230F000400AD0C10D01F50A
:100990006071C0F3160042EA0151C20840071143DA
:1009A000704700200146704730B5041E71F1000405
:1009B00004DB4FF00044404264EB0101141E73F16C
:1009C000000405DB1C464FF00043524263EB040376
:1009D0008B4208BF824230BD30B5041E71F1000465
:1009E00004DB4FF00044404264EB0101141E73F13C
:1009F000000405DB1C464FF00043524263EB040346
:100A0000994208BF904230BD01F0004330B421F05C
:100A1000004150EA010206D00A0DA2F56072C1F34E
:100A20001301002A02DC30BC00207047440F44EA66
:100A3000C104C100E01830BC00EBC25000F078B82F
:100A400030B50B46014600202022012409E021FA9E
:100A500002F59D4205D303FA02F5491B04FA02F59B
:100A60002844151EA2F10102F1DC30BD2DE9F05F32
:100A70000546002092469B4688460646814640240D
:100A80001BE0284641464746224600F02FF85346D1
:100A90005A46C01A914110D311461846224600F01A
:100AA00016F82D1A67EB01084F4622460120002157
:100AB00000F00DF817EB00094E41201EA4F10104CF
:100AC000DFDC484631462A464346BDE8F09F202AEF
:100AD00004DB203A00FA02F1002070479140C2F195
:100AE000200320FA03F3194390407047202A04DBC7
:100AF000203A21FA02F00021704721FA02F3D04097
:100B0000C2F120029140084319467047202A06DBB3
:100B1000CB17203A41FA02F043EAE07306E041FACB
:100B200002F3D040C2F120029140084319467047B9
:100B30000029A8BF7047401C490008BF20F00100F1
:100B4000704710B4B0FA80FC00FA0CF050EA0104CF
:100B500004BF10BC704749B1CCF1200421FA04F461
:100B600011FA0CF118BF012121430843A3EB0C013A
:100B7000CB1D4FEA00614FEA102042BF002010BC9D
:100B8000704700EBC35010440029A4BF10BC70474D
:100B9000401C490008BF20F0010010BC704710B590
:100BA000141E73F1000408DA401C41F10001921890
:100BB0005B411A4301D120F0010010BD2DE9F04D39
:100BC00092469B4611B1B1FA81F202E0B0FA80F28E
:100BD00020329046FFF77BFF04460F4640EA0A00AA
:100BE00041EA0B0153465A46084313D0114653EAD3
:100BF000010019D0C8F140025046FFF777FF0546C3
:100C00000E46504659464246FFF761FF084305D05D
:100C1000012004E020463946BDE8F08D0020054360
:100C200046EAE0762C4337430A986305E40AA0EBD2
:100C300008000022FD0A44EA47540A3002D5002089
:100C40000146E9E7010510196941DDE90845001988
:100C50006941BDE8F04DA2E72DE9F04D00231A46A9
:100C60001B1A8A4103DB00200146BDE8F08DC1F369
:100C70000A52C1F3130141F480154FF0000BD10764
:100C800002D100186D41521E0027044640F2FF11A8
:100C9000384601EB620A3E468046024600204FF489
:100CA0008011FFF723FFC2197141BB1846EB010009
:100CB000B4EB030C75EB000C04D3E41A65EB0005F0
:100CC00017460E46241908F101006D41804634286C
:100CD000E3DDF91946EB0600091BA84103D24FF0EA
:100CE000FF32134601E0002213461BEB070046EBE0
:100CF0000A51BDE8F04DFFF752BF2DE9FE4FC3F397
:100D00000A5701F000450024C1F30A56C3F3130348
:100D1000C1F3130143F4801312EB020AA64641F417
:100D20008011009543EB030CA7F1010B16E0B0EB2B
:100D30000A0061EB0C01071E71F1000707DA4FF0A2
:100D40000008D0EB080085F0004568EB0101171A98
:100D500073EB0107EBD3761E001849415E45F6DAC6
:100D600050EA010209D0CDE900E5002213460296BF
:100D7000FFF724FF03B0BDE8F08F20460099F9E7A4
:100D8000C1F30A52C1F3130140F2FF3341F4801161
:100D90009A4202DA00200146704740F233439A42F9
:100DA000A2F2334202DC5242FFF7A0BEFFF78FBE31
:100DB000064C074D06E0E06840F0010394E80700A8
:100DC00098471034AC42F6D3FFF7E2F91840010817
:100DD0003840010870B58C1810F8015B15F0070356
:100DE00001D110F8013B2A1106D110F8012B03E0C4
:100DF00010F8016B01F8016B5B1EF9D12B0705D4CC
:100E00000023521E0DD401F8013BFAE710F8013B14
:100E1000CB1A921C03E013F8015B01F8015B521E30
:100E2000F9D5A142D8D3002070BD0029816814BF34
:100E300041F0010121F0010181607047084AD2F8B8
:100E40000413084B1940D0E9003C43EA0C03D0E9F5
:100E500002C04CEA000018430843C2F8040370477C
:100E600000200140E030FCFF10B4426891F804C05B
:100E700022F4807222F040720B6842EA0C221A437C
:100E8000426082680C4B4C791A40D1E903C343EAB3
:100E90000C03D1F808C04CEA440C43EA0C031A4393
:100EA0008260C26A097D22F47002491EC9B242EA18
:100EB0000151C16210BC7047FDF7FFC010B58CB086
:100EC0000121052006F0AEFE0121080206F0DAFE3F
:100ED00010200A9003208DF82C0000248DF82F405C
:100EE0000AA9154804F05EF80121080206F0D6FEB2
:100EF00000214FF4807006F0D1FE06944FF480304C
:100F00000994CDE9070406A8FFF798FF8DF804407F
:100F100000948DF80540029404940120074C8DF84C
:100F2000140069462046FFF79FFF01212046FFF786
:100F30007CFF0CB010BD000000000240002001400A
:100F400010B582B04FF4A06005F082FC08F0FEF905
:100F50003F4800903F4B404A0121404809F0A2FC25
:100F600005F072FE07F0BAF9322005F08BFE322050
:100F700005F06EFF04F014FF4FF416500BF006F866
:100F80004FF4FA200BF070F835480AF039FF4FF4AF
:100F9000E1300AF08BFF01216020CDE90001334CE4
:100FA000304B314AC906204605F056FB012280210C
:100FB0002F4809F0A0FA6221204605F09BFB64202F
:100FC00002F01AFD07F0CAFC07F05EFC01F0D8FE43
:100FD00001F072FF01F006FF01F094FF642002F0BF
:100FE0000BFD0FF041F90BF089F9642002F004FDCC
:100FF00006F0B0FE642002F0FFFC07F08DF81D48FB
:10100000006818B15321002001F048F8FFF756FF9F
:1010100004F04AFF0023B0EE080A08220321012051
:1010200001F09EF80023B0EE080A082203210120F7
:1010300001F034FA01F004FE05F03EFD05F034FC49
:10104000FA21042004F0F0FD02B0012010BD0000E0
:10105000340B0020BC0B0020E40A0020909A0020F2
:10106000A0860100D8D5002004100140B8640240D9
:10107000001001404C0000202DE9F84F04460023E9
:101080000420A1F1010C1A460090BCF1000F06DD0E
:10109000A55C521C2B44D2B2DBB29445F8DC21444F
:1010A00011F8011C994201BF2178AA296178AF2962
:1010B00018BFBDE8F88FA278DFF80094DFF800844D
:1010C000FC4BDFF8F4A3DFF8FCB309F5805608F514
:1010D0008065012A00F008810127212A00F026827C
:1010E000512A00F0EF82612A00F04984DFEDF60A10
:1010F0004FF0FF3A022A00F02185DFF8D09300215B
:10110000312A00F0C7850226322A00F0F985522ADA
:1011100000F06A86532A00F07C86542A00F09286FA
:101120009FEDEB1ADFEDEB1ADFF8AC83822A00F0BB
:101130009286832A18BFBDE8F88FCBF81870CBEDE4
:10114000080ACBF81C70CBED090AA27853F822C02C
:101150000CF1010C43F822C0421C0092205C0B28C9
:1011600008BFCBF81470531C009314F802C04FF062
:101170000000BCF1000F00F06C87C0EB001208EB20
:101180000212401CD166C0B251700E28F5D3581C13
:101190000090E35C0020C0EB001208EB0212022B6F
:1011A000D37002BF92F802C0BCF1000F977000F13B
:1011B0000100C0B20E28EED34FF007098B4600990C
:1011C000C9EB0912481C009008EB0215615C85F818
:1011D000EC10411C0091205C2867697C002900F01C
:1011E0004587694620460EF0FFFE694620460EF010
:1011F000FBFE85ED230A0098411C0091205C02282B
:101200000CBFC5F8D4A0C5F8D470481C0090615C30
:1012100002290CBFC5F8D0A0C5F8D070411C0091C0
:10122000205C01280CBFC5F8D8B0C5F8D870694655
:1012300020460EF0D9FE09F1010000F0FF0985ED0E
:10124000110AB9F10E0FBAD30099A44B481C0090B3
:10125000615C88F89816411C0091205C88F888072A
:10126000481C0090615C88F87818411C0091205C53
:1012700088F86809481C0090615C88F8581A411C7D
:101280000091205C88F8480B481C0090605CDFF8F7
:1012900050C2944C88F8380C0021C1EB011008EBC7
:1012A000001090ED050A10EE102A9A4288BFB0EEA9
:1012B000410A05D810EE102A6245C8BFB0EE610A97
:1012C00080ED050A90ED230A80ED0A0AB0EEC00A0F
:1012D00010EE102AA242CCBFC666C766481CC1B237
:1012E0000E29DAD3BDE8F88FDBF82C10491CCBF8B7
:1012F0002C10A17853F82120521C43F82120411CC6
:101300000091205C88F8E805694620460FF05CF8FB
:10131000C8F81C000098411C0091205C88F8690501
:10132000481C0090615C88F8E915411C0091205C24
:1013300088F88C06481C0090615C88F88D16411C6A
:101340000091205C88F86B05481C0090605C88F870
:101350006A05694620460EF047FE88ED3E0A69465A
:1013600020460EF041FE88ED3F0A694620460EF009
:101370003BFE88ED400A694620460EF035FE88EDBA
:101380003A0A694620460EF02FFE88ED3B0A694670
:1013900020460EF029FE88ED3C0A694620460EF0F4
:1013A00023FE85ED9A0A694620460EF01DFE85ED66
:1013B0009B0A694620460EF017FE85ED9C0A694699
:1013C00020460EF011FE85ED9D0A0099481C009004
:1013D000615C88F86815411C0091205C012814BFED
:1013E00001204FF0FF30C9F8E402481C0090615C16
:1013F00001290CBF4FF0FF310121C9F88018411CB1
:101400000091205C01280CBF4FF0FF300120C9F88B
:101410001C0E481C0090605C01280CBF4FF0FF3090
:1014200001206946C6F8B80320460EF0DDFD85EDC3
:101430000C0A694620460EF0D7FD85ED0D0A694677
:1014400020460EF0D1FD85ED0E0A694620460EF0CD
:10145000CBFD85ED0F0A694620460EF0C5FD85EDF2
:10146000080A694620460EF0BFFD85ED090A694667
:1014700020460EF0B9FD85ED0A0A694620460EF0B9
:10148000B3FD85ED0B0A694620460EF0ADFD6946B9
:1014900020460EF0A9FD694620460EF0A5FD6946DE
:1014A00020460EF0A1FD694620460EF09DFD42F259
:1014B000107019E08CDC00201F85EB515483002054
:1014C000940D0020240A002000000000C07D0020B0
:1014D000000032C30000324394E70020000032C312
:1014E000000032430AD7233CD8F81C106FF41C725A
:1014F00091FBF0F0C0B288F80C0010FB02F201EB97
:1015000002128AFB02325311A3EBE27288F80D201B
:10151000F02310FB03F06FF0180312FB03F200EB53
:101520008200084488F80E00BDE8F88FD3F88410D4
:10153000491CC3F88410411C009114F80080801CE1
:101540000090665C694620460EF04EFDFE4D6946F1
:10155000204685ED040A0EF047FD85ED050A694633
:1015600020460EF041FD85ED060A694620460EF044
:101570003BFD85ED070A694620460EF035FD85EDF9
:10158000080A694620460EF02FFD85ED090A6946D6
:1015900020460EF029FD85ED0D0A694620460EF025
:1015A00023FD85ED0E0A694620460EF01DFD85EDF2
:1015B0000F0AB8F1000F0FD0012E04BF2F70BDE845
:1015C000F88F022E04BF6F70BDE8F88F032E08BF9E
:1015D00085F80071BDE8F88F694620460EF004FDDD
:1015E000DFEDDA0A6946204620EE200A85ED2B0A57
:1015F0000EF0FAFC20EE200A6946204685ED2C0A02
:101600000EF0F2FC20EE200A6946204685ED2C0AF9
:101610000EF0EAFC85ED2E0A694620460EF0E4FC49
:1016200085ED2F0A694620460EF0DEFC85ED300A76
:10163000694620460EF0D8FC85ED310A6946204601
:101640000EF0D2FC85ED320A694620460EF0CCFC45
:1016500085ED330A694620460EF0C6FC85ED340A56
:10166000694620460EF0C0FC85ED350A69462046E5
:101670000EF0BAFC85ED360A694620460EF0B4FC41
:1016800085ED440A694620460EF0AEFC85ED450A1C
:10169000694620460EF0A8FC85ED460A69462046BC
:1016A0000EF0A2FC85ED500A694620460EF09CFC27
:1016B00085ED510A694620460EF096FC85ED520AEA
:1016C000BDE8F88FD3F84411491CC3F84411411CFC
:1016D0000091265C022E04BF88F8EA75BDE8F88FF9
:1016E000012E00F0488198F8EA05002818BFBDE8EF
:1016F000F88F694620460EF077FC88EDF30A6946BC
:1017000020460EF071FC88EDF40A694620460EF082
:101710006BFC88EDF50A694620460EF065FC88ED05
:10172000F60A694620460EF05FFC88EDF70A694626
:1017300020460EF059FC88EDF80A694620460EF066
:1017400053FC88EDF90A694620460EF04DFC88ED01
:10175000FA0A694620460EF047FC88EDFB0A694606
:1017600020460EF041FC88EDFC0A694620460EF04A
:101770003BFC88EDFD0A694620460EF035FC88EDFD
:10178000FE0A694620460EF02FFC88EDFF0A6946E6
:1017900020460EF029FC85ED000A694620460EF031
:1017A00023FC85ED010A694620460EF01DFC85EDFF
:1017B000020A694620460EF017FC85ED030A6946C9
:1017C00020460EF011FC85ED040A694620460EF015
:1017D0000BFC85ED050A694620460EF005FC85EDFB
:1017E000060A694620460EF0FFFB85ED070A6946AA
:1017F00020460EF0F9FB85ED170A694620460EF0EB
:10180000F3FB85ED180A694620460EF0EDFB85EDE9
:10181000190A694620460EF0E7FB85ED1A0A69466B
:1018200020460EF0E1FB85ED140A694620460EF0D5
:10183000DBFB85ED150A694620460EF0D5FB85EDEC
:10184000160A694620460EF0CFFB85ED1F0A694651
:1018500020460EF0C9FB85ED200A694620460EF0B1
:10186000C3FB85ED210A694620460EF0BDFB85EDE0
:10187000660A694620460EF0B7FB85ED670A6946A1
:1018800020460EF0B1FB85ED680A694620460EF051
:10189000ABFB694620460EF0A7FB694620460EF0DA
:1018A000A3FB694620460EF09FFB85ED080A6946BA
:1018B00020460EF099FB85ED090A694620460EF098
:1018C00093FB85ED0A0A694620460EF08DFB85EDF7
:1018D0000B0A694620460EF087FB85ED0C0A694627
:1018E00020460EF081FB85ED0D0A694620460EF07C
:1018F0007BFB85ED0E0A694620460EF075FB85EDF3
:101900000F0A694620460EF06FFB88ED2A0A6946E9
:1019100020460EF069FB88ED2B0A032E2BD069467A
:1019200020460EF051FD42F2107190FBF1F1C9B268
:10193000C8F81C0088F80C106FF41C7211FB02F23E
:1019400000EB021204E0000000FF002000008045D0
:101950008AFB02325311A3EBE27288F80D20F023C8
:1019600011FB03F16FF0180312FB03F201EB82018C
:10197000084488F80E0088F8E875BDE8F88FD3F8B9
:101980008401401CC3F88401082003F05FFD8BED47
:101990000A0A0098401C401C411C0091205C88F8F9
:1019A000E805694620460EF01FFB694620460EF00A
:1019B0001BFB694620460EF017FB694620460EF0D9
:1019C00013FB694620460EF00FFB694620460EF0D9
:1019D0000BFB694620460EF007FB694620460EF0D9
:1019E00003FB694620460EF0FFFA0098411C009167
:1019F000205C012814BF01204FF0FF30C9F8E40239
:101A0000481C0090615C01290CBF4FF0FF3101219F
:101A1000C9F88018411C0091205C01280CBF4FF0D0
:101A2000FF300120C9F81C0E481C0090605C0128A2
:101A30000CBF4FF0FF3001206946C6F8B8032046BE
:101A40000EF0D2FA88EDF30A694620460EF0CCFA81
:101A500088EDF40A694620460EF0C6FA88EDF50ACC
:101A6000694620460EF0C0FA88EDF60A694620461F
:101A70000EF0BAFA88EDF70A694620460EF0B4FA7D
:101A800088EDF80A694620460EF0AEFA88EDF90AAC
:101A9000694620460EF0A8FA88EDFA0A6946204603
:101AA0000EF0A2FA88EDFB0A694620460EF09CFA79
:101AB00085ED050A694620460EF096FA85ED060A80
:101AC000694620460EF090FA85ED070A69462046E1
:101AD0000EF08AFA694620460EF086FA69462046DC
:101AE0000EF082FA694620460EF07EFA88ED2A0A48
:101AF000694620460EF078FA88ED2B0A69462046A2
:101B00000EF072FA85ED0C0A694620460EF06CFA6A
:101B100085ED0D0A694620460EF066FA85ED0E0A3F
:101B2000694620460EF060FA85ED0F0A69462046A8
:101B30000EF05AFA85ED190ABDE8F88F9968401C35
:101B4000491C9960411C0091205C88F8E905481CFB
:101B50000090655C88F8E855891C0091205C88F845
:101B60006A05481C0090615CC9F89013411C009103
:101B7000205CC9F89403481C0090615CC9F8981374
:101B8000411C0091205CC9F82C09481C0090615C44
:101B9000C9F83019411C0091205CC9F83409481C6F
:101BA0000090615CC9F8C81E411C0091205CC9F816
:101BB000CC0E481C0090615CC9F8D01E411C0091FD
:101BC000205CC6F86404481C0090615CC6F8681488
:101BD000411C0091205CC6F86C04694620460EF05A
:101BE00003FA694620460EF0FFF9694620460EF0DA
:101BF000FBF90022002040F26711514309EB8103F9
:101C000003EB8001D1F890C3BCF1010F0CBFC1F808
:101C100090A3C1F89073401CC0B20328F0D3501CAD
:101C2000C2B2042AE6D3012D08BF002108D100204A
:101C3000401CC0B20328FBD3481CC1B20429F6D310
:101C400098F8E9050B281CBFC8ED110ABDE8F88F0C
:101C5000B7EE000A88ED110A694620460EF0C4F975
:101C600088ED0D0A694620460EF0BEF988ED0E0A91
:101C7000694620460EF0B8F988ED0F0A00210020D1
:101C8000401CC0B20328FBD3481CC1B20429F6D3C0
:101C9000BDE8F88FD3F8C420521CC3F8C42089F8DB
:101CA0000070C9F8041089F80870411C0091205C8C
:101CB00089F80900694620460EF096F989ED030A75
:101CC000694620460EF090F989ED040A69462046DF
:101CD0000EF08AF989ED050A694620460EF084F96E
:101CE00089ED060A694620460EF07EF989ED070A5D
:101CF000694620460EF078F989ED080ABDE8F88FAC
:101D0000D3F8C8200D46521CC3F8C82089F80070CB
:101D1000421CC9F804100092205C89F80900501C8C
:101D20000090A05C89F8380199F80800032808BFE2
:101D3000BDE8F88F89F80860694620460EF054F92E
:101D400089ED0A0A694620460EF04EF989ED0B0A24
:101D5000694620460EF048F989ED0C0A694620468E
:101D60000EF042F989ED0D0A694620460EF03CF965
:101D700089ED0E0A0099481C0090615CC9F85C105E
:101D8000411C0091205CC9F86000694620460EF0B5
:101D90001BFBC9F84000694620460EF015FBC9F848
:101DA0003C000098411C0091205CC9F84400481C8C
:101DB0000090615CC9F84810411C0091205CC9F892
:101DC0005000481C0090615CC9F84C10411C009107
:101DD000205CC9F85400481C0090605CC9F85800A9
:101DE000AA480572BDE8F88FD3F84801401CC3F833
:101DF0004801C8ED190AC5ED960A88F8C21388F89B
:101E0000C313C8ED110A88F8E91589F82410BDE854
:101E1000F88FD3F84C01401CC3F84C01C8ED190AE7
:101E2000C5ED960A88F8C21388F8C313C8ED110AE5
:101E300088F8E91589F824100121042003F0F4FE44
:101E4000BDE8F88FD3F85001401CC3F8500188F862
:101E5000E875BDE8F88FCBF81870CBED080ACBF821
:101E60001C70CBED090AA27853F822C00CF1010CCA
:101E700043F822C0421C0092205C0B2808BFCBF81C
:101E80001470531C009314F802C04FF00000BCF112
:101E9000000F7CD0C0EB001208EB0212401CD16690
:101EA000C0B251700E28F5D303F1010CCDF800C07B
:101EB000E35C0020C0EB001208EB0212022BD3708F
:101EC00002BF9578002D977000F10100C0B20E2876
:101ED000F0D30CF10100009014F80C200020C0EBAE
:101EE000001308EB0313401CC0B2DA710E28F6D3BE
:101EF00000258B460099C5EB0512481C009008EBA5
:101F00000219615C89F8EC10411C0091205CC9F851
:101F1000700099F8111000297ED0694620460EF015
:101F200063F8694620460EF05FF889ED230A0098B1
:101F3000411C0091205C02280CBFC9F8D4A0C9F84C
:101F4000D470481C0090615C02290CBFC9F8D0A075
:101F5000C9F8D070411C0091205C01280CBFC9F861
:101F6000D8B0C9F8D870694620460EF03DF8681C14
:101F7000C5B289ED110A072DBCD30099481C009009
:101F8000615C88F80810411C0091205C00E046E08C
:101F900088F8F8004A1C0092605C88F8E801881C08
:101FA0000090A15C88F8D812411C0091205C88F850
:101FB000C803481C0090615C88F8B814411C00916B
:101FC000205C334BDFF8CCC0334C88F8A8050021E7
:101FD000C1EB011008EB001090ED050A10EE102A7D
:101FE0009A4288BFB0EE410A05D810EE102A624529
:101FF000C8BFB0EE610A80ED050A90ED230AB0EE8D
:10200000C00A10EE102AA242CCBFC666C766481CA2
:10201000C1B20E29DCD300E00DE0BDE8F88FC0EBC3
:10202000001208EB0212401CC2F86CC0C0B257701C
:102030000E28F4D338E701286946204604D00DF075
:10204000D3FF89ED050A6CE70DF0CEFF89ED090A93
:1020500067E7C0EB001208EB0212401CC2F86CC02C
:10206000C0B257700E28F4D3FFF791B80128694623
:10207000204605D00DF0B8FF85ED050AFFF7B5B88D
:102080000DF0B2FF85ED090AFFF7AFB8C499002043
:10209000000032C3000032430AD7233C2DE9F0434D
:1020A0000D4604468BB00121042005F0D3FD01212B
:1020B000022005F0B7FDDFF89C9002220721484678
:1020C00002F0BFFF8020022606908DF81C600320DE
:1020D0008DF81D004FF000088DF81E8001278DF847
:1020E0001F7006A9484602F05DFFADF820501A4D5A
:1020F000ADF822800994ADF8288008A9284607F099
:102100000DFB6020ADF8000060080290ADF80C6097
:10211000ADF802706946284607F023FA08212846E0
:1021200007F062FA0121284607F0C4F90121284688
:1021300007F0C9F964200DF0AFFE022005F01AFA8D
:1021400064200DF0A9FE0021084607F049FB0BB002
:10215000BDE8F0830004024000080040FEE70000F4
:102160002DE9F04F89462DED028B82468BB01F463C
:10217000B0EE408A90460121022005F053FD012176
:10218000480605F067FD4FF44070022608908DF870
:10219000246000248DF8264003208DF82500DFF808
:1021A000E0B001258DF8275008A9584602F0FAFE44
:1021B00009220821584602F044FF092211465846D8
:1021C00002F03FFFBCEEC80A8DF802708DF80640A1
:1021D0008DF8085010EE100A8DF807508DF8094060
:1021E0008DF803A0274F8DF80A408DF80480ADF8D4
:1021F00000008DF80B408DF805906946384600F0D8
:102200009BFB8DF816408DF817408DF81850ADF8EF
:102210000C40ADF81040ADF80E40ADF81240ADF8EE
:1022200014408DF8195003A800F008FB0122022188
:10223000384600F079FB14208DF81C008DF81D50F5
:102240008DF81E608DF81F5007A804F0C7FA002211
:10225000E903384600F068FB01220221384600F00D
:1022600063FB0221384600F09BFA0121384600F05A
:1022700097FA0BB00020BDEC028BBDE8F08F000098
:10228000000402400064004070B586B06A46002138
:102290007D4800F0CAFB7D490098A1F552650870A1
:1022A0009DF80B0048709DF80C208A709DF80D2059
:1022B000CA709DF80E200A719DF80F204A719DF892
:1022C00010208A719DF81120CA719DF812200A729F
:1022D00095F8EC10A5F5846612294BD29DF80810EC
:1022E00000297CD19DF80A10062918BF082977D14A
:1022F0006946012818BF112819D0022818BF1228D2
:1023000027D0032818BF132835D0042818BF142855
:1023100043D05F4C052818BF152850D0062818BF99
:10232000162861D0072818BF172870D083E05948B5
:1023300001F10B010CF098FE95ED0C0A86ED140AE4
:1023400095ED0E0A86ED220A95ED100A86ED680AD3
:102350006EE005F1F0000B310CF086FE95ED480AB9
:1023600086ED150A95ED4A0A86ED230A95ED4C0A8D
:1023700086ED690A5CE005F5F0700B310CF074FE37
:1023800095ED840A86ED160A95ED860A86ED240AF7
:1023900095ED880A86ED6A0A4AE005F534700B313E
:1023A0000CF062FE95EDC00A86ED170A95EDC20AA3
:1023B00086ED250A95EDC40A86ED6B0A38E005F531
:1023C00070700B310CF050FE95EDFC0A86ED180A8A
:1023D00095EDFE0A86ED260A94ED000A01E04DE037
:1023E00029E086ED6C0A23E005F596600B310CF0D0
:1023F0003BFE94ED380A86ED190A94ED3A0A86ED13
:10240000270A94ED3C0A86ED6D0A11E0FFE705F519
:10241000B4600B310CF028FE94ED740A86ED1A0AB4
:1024200094ED760A86ED280A94ED780A86ED6E0A18
:102430009DF8080010BB9DF80A00062824BF95F8F7
:10244000EC0012281AD300221146684605F062FFFC
:102450000020C0EB001105EB011106EB800291EDAD
:102460000C0A401C82ED140A91ED0E0A072882ED39
:10247000220A91ED100A82ED680AEADB06488168BB
:10248000491C816006B070BD00640040B4F40020B7
:1024900094EB002094E70020880A00202DE9F04FFB
:1024A00089462DED028B82468BB01F46B0EE408AE6
:1024B00090460121022005F0B5FB0121880605F0B8
:1024C000C9FB6020022608908DF8246000248DF856
:1024D000264003208DF82500DFF8C4B001258DF8D3
:1024E000275008A9584602F05DFD092205215846EB
:1024F00002F0A7FD09220621584602F0A2FDBCEE1B
:10250000C80A8DF802708DF806408DF8085010EE5C
:10251000100A8DF807508DF809408DF803A0214F5F
:102520008DF80A408DF80480ADF800008DF80B405E
:102530008DF805906946384600F0FEF90E208DF8BA
:1025400016008DF817408DF81850ADF80C40ADF816
:102550001040ADF80E40ADF81240ADF814408DF8C3
:10256000195003A800F06AF901220221384600F050
:10257000DBF940208DF81C008DF81D508DF81E6091
:102580008DF81F5007A804F029F90022E903384606
:1025900000F0CAF90BB00020BDEC028BBDE8F08F53
:1025A0000004024000680040F0B585B06A46002192
:1025B000744800F03AFA9FED740A744F744E87ED38
:1025C000040A96F8EC00A6F5846512284FD29DF80F
:1025D0000800002870D19DF80A00062818BF0828B6
:1025E0006BD19DF80B006B4C6946012818BF112870
:1025F00019D0022818BF122828D0674C032818BF0A
:10260000132835D0042818BF142843D0052818BF34
:10261000152853D0062818BF162861D0072818BFE0
:10262000172870D084E006F5D26001F10B010CF0A0
:102630001BFD94EDB00A85ED1B0A94EDB20A85ED01
:10264000290A94EDB40A85ED6F0A6EE006F5F06094
:102650000B310CF009FD94EDEC0A85ED1C0A94EDAC
:10266000EE0A85ED2A0A94EDF00A85ED700A5CE029
:1026700006F507600B310CF0F7FC94ED280A85EDA8
:102680001D0A94ED2A0A85ED2B0A94ED2C0A85ED9E
:10269000710A4AE006F516600B310CF0E5FC94ED8A
:1026A000640A85ED1E0A94ED660A85ED2C0A94ED08
:1026B000680A85ED720A38E05FE039E006F52560CA
:1026C0000B310CF0D1FC94EDA00A85ED1F0A94EDBE
:1026D000A20A85ED2D0A94EDA40A85ED730A24E083
:1026E00006F534600B310CF0BFFC94EDDC0A85ED8F
:1026F000200A94EDDE0A85ED2E0A94EDE00A85EDC0
:10270000740A12E0FFE706F543600B310CF0ACFCF5
:10271000224890ED180A85ED210A90ED1A0A85ED00
:102720002F0A90ED1C0A85ED750A9DF8080020BB64
:102730009DF80A00062824BF96F8EC0012281CD346
:1027400001220021684605F0E5FD0720C0EB0011DD
:1027500006EB011101F5806105EB800291EDB00AF5
:10276000401C82ED1B0A91EDB20A0E2882ED290A67
:1027700091EDB40A82ED6F0AE8DB7869401C78615C
:1027800005B0F0BD0068004000000000880A00208D
:1027900094E7002094EB002094EF002094F30020B5
:1027A00010B4082304224FF0100CB1F5007F40D084
:1027B00021DC202902BF036110BC704710DC012915
:1027C00001BF1D49816010BC7047042902BFC3606E
:1027D00010BC7047082908BFC0F80CC010BC704777
:1027E000402902BFC0F810C010BC7047B1F5807F0F
:1027F0001FD010BC70470024B1F5004F08D00BDC8F
:10280000B1F5806F15D0B1F5006F1CBF10BC7047DB
:102810008461426010BC7047B1F5803F02BF4360E5
:1028200010BC7047B1F5003F08BFC0F804C010BC31
:102830007047426010BC70470101010030B4827AD9
:10284000344B012191401A6842F001021A60DFF80E
:10285000C8C0DCF800208A43CCF80020047B2F4A53
:10286000D4B914688C4314604488C58844EA05448C
:10287000857AED0005F1804505F5C045C5F840466F
:102880000588848845EA0445847AE40004F180449C
:1028900004F5C044C4F84456047B012C18D11468D4
:1028A0000C431460847A0268E40004F1804404F567
:1028B000C0444FEA3242C4F84026847A4268E400B9
:1028C00004F1804404F5C0444FEA3242C4F844267F
:1028D000C47A134A002C14680CBF8C430C43146058
:1028E0000489104A14B914688C4314600489012CBB
:1028F00002D114680C431460407B012804D1DCF839
:1029000000000843CCF80000186820F001001860AF
:1029100030BC7047006600401C6600400C660040FA
:102920000466004014660040002A426914BF114347
:1029300022EA0101416170470368002223F002038B
:102940000360036843F0010303604FF6FF73D0F8A0
:1029500004C01CF0010F03D19A4218BF521CF6D1DB
:10296000426812F0010F5DD08A79012A02680CBF1B
:1029700042F0800222F080020260CA79012A0268D5
:102980000CBF42F0400222F0400202600A7A012AA3
:1029900002680CBF42F0200222F0200202604A7A54
:1029A000012A02680CBF42F0100222F010020260FD
:1029B0008A7A012A02680CBF42F0080222F008025B
:1029C0000260CA7A012A02680CBF42F0040222F0B7
:1029D000040202608A7891F803C04FEA827242EAE8
:1029E0000C6291F804C042EA0C4291F805C00988D3
:1029F00042EA0C52A1F1010142EA0101C161016800
:102A000021F0010101604FF00001426812F0010F56
:102A10001CBF9942491CF8D1406810F0010F04BF57
:102A2000012070474FF00000704700EB0113D3F80E
:102A3000B0C11CF0040C82F808C0D3F8B0C107BFC5
:102A40004FEA5C5CC2F800C04FEADC0CC2F804C07C
:102A5000D3F8B0C10CF0020C82F809C0D3F8B4C1AD
:102A60000CF00F0C82F80AC0D3F8B4C14FEA1C2C4A
:102A700082F813C0D3F8B8C182F80BC0D3F8B8C13C
:102A80004FEA1C2C82F80CC0D3F8B8C14FEA1C4C9A
:102A900082F80DC0D3F8B8C14FEA1C6C82F80EC0A2
:102AA000D3F8BCC182F80FC0D3F8BCC14FEA1C2CCC
:102AB00082F810C0D3F8BCC14FEA1C4C82F811C098
:102AC000D3F8BC311B0E937421B1016941F0200190
:102AD00001617047C16841F02001C160704710B4C6
:102AE00002460020936813F0806F50D002EB001272
:102AF000D2F8803103F00103C2F880310B7A002B49
:102B000054D0D2F880C14C684CEA030391F809C054
:102B10004CEAC40C43EA0C03C2F880318B7A03F010
:102B20000F038B72D2F8843123F00F03C2F8843183
:102B3000D2F8843191F80AC043EA0C03C2F8843118
:102B4000CB7A91F80EC00C7B43EA0C6391F80DC070
:102B50004FEA0C4C4CEA042C43EA0C03C2F88831CF
:102B6000CB7B91F812C043EA0C6391F811C0097C49
:102B70004FEA0C4C4CEA01211943C2F88C11D2F8EF
:102B8000801141F00101C2F8801110BC70479068BB
:102B900010F0006F18BF0120A8D1906810F0805F7E
:102BA00014BF02200420A1D110BC7047D2F880319C
:102BB00091F809C043EA0C03B1F800C043EA4C5352
:102BC000AAE700000022002904BF8068184907D046
:102BD000012904BF8068174902D0022903D006E00A
:102BE00000EA010203E08068134900EA0102134988
:102BF000501A8A4217D00ADC002A15BF6FF0806095
:102C0000022012EB0000704702280ED00BE0B0F556
:102C1000007F0AD0A0F57F40B0F1006008BF704788
:102C2000B0F5003F01D00020704701207047000040
:102C30000300000400030008000003100001000866
:102C400010B40020164ADFED170A9FED170A9FED1A
:102C5000172A0346012402F5846CB7EE001AF6EE3B
:102C6000001A137082F83C3002EB800182F83E407B
:102C7000C1EDAE0AC1EDCA0A81EDF60AC0EB001142
:102C80000CEB0111401C81ED150A81ED111AC1ED0B
:102C9000121AC0B281ED142A0E28E2D310BC70477C
:102CA00074E30020000000000000F042CDCCCC3DD9
:102CB00070B531482F4D00242DED028BB0EE408AC7
:102CC00002682E4895F8EC300168A5F58460122B57
:102CD00090F83C0026D3002918BF002A11D0C4EB7D
:102CE000041005EB0010B0EE480A417801706878D6
:102CF0000EF0A8FC601CC4B20E2CF0D3BDEC028B0D
:102D000070BDC4EB041105EB01110870611CCCB25D
:102D10000E2CF6D3B0EE480ABDEC028BBDE8704035
:102D20000EF090BC002918BF002A11D0C4EB04108B
:102D300005EB0010B0EE480A4178017068780EF09B
:102D4000E7F9601CC4B20E2CF0D3BDEC028B70BD51
:102D5000C4EB041105EB01110870611CCCB20E2C00
:102D6000F6D3B0EE480ABDEC028BBDE870400EF021
:102D7000CFB9000094E70020400A00203C0A002060
:102D800010B5012186B0880304F064FF144C20467E
:102D900005F02DFF00211020ADF80C00ADF800105B
:102DA000ADF80410ADF808100720ADF80210ADF82A
:102DB0000610ADF80A10ADF80E10ADF81000694617
:102DC000204605F075FF01221146204605F007FF59
:102DD00001220221204605F002FF06B010BD0000CE
:102DE0000038004030B5012189B0880304F032FF7B
:102DF0000121022004F016FF2D4D05220D21284649
:102E000002F01FF905220E21284602F01AF90522C8
:102E10000F21284602F015F902218DF81C108DF8BB
:102E20001D1000248DF81E4001218DF81F1049034C
:102E3000069106A9284602F0B5F84FF480410691A4
:102E400006A9284602F0AEF84FF40040069006A905
:102E5000284602F0A7F8174D284605F0C8FEADF841
:102E600008406815ADF80A001020ADF80C000720E6
:102E7000ADF80040ADF80440ADF81000ADF80240E8
:102E8000ADF80640ADF80E406946284605F010FF43
:102E900001221146284605F0A2FE01220221284601
:102EA00005F09DFE0121284605F090FE09B030BDD9
:102EB000000402400038004010B50121480504F02C
:102EC000B1FE0C4800F0D0FA0B4800F0CDFA0B48E8
:102ED00000210322C0E90B124163016241624FF4F9
:102EE00080628163C0E90621054A4161C0E90012A0
:102EF00010BD00005860024070600240C8A1002070
:102F00000C380040F8B52C4C4FF400360020A66277
:102F1000E060A4F5A270A225284F256100F5A271FA
:102F2000A060384600F0B4FB4020A662E060A4F147
:102F3000A2002561224D00F1A201A060284600F008
:102F4000A7FB01221021384600F08AFB0E208DF8E5
:102F5000000001248DF801408DF802408DF80340F7
:102F6000684603F03BFC01221021284600F078FB64
:102F70000F208DF800008DF801408DF802408DF88B
:102F80000340684603F02AFC0121384600F062FA4B
:102F90000121284600F05EFA0A4C01221146204623
:102FA00005F01DFE01220221204605F018FE012138
:102FB000204605F00BFEF8BDC8A100205860024075
:102FC00070600240003800400B4611F0800F01F0A5
:102FD0007F0210B502EB820100EBC10114BF01F5C5
:102FE0008E7101F55D710A70DA094A7008F010FD02
:102FF000002010BD10B50A4611F0800F01F07F03CC
:1030000014BF03EB830102EB820100EBC10114BF8B
:1030100001F58E7101F55D714FF0000C81F802C071
:103020000B70D2094A7008F0DCFC002010BD70B5AE
:103030000C4611F0800F01F07F0C0CEB8C0100EBC3
:10304000C10114BF01F58E7101F55D7181F800C0F9
:10305000E4094C708A60CB7018BFA1F806C0022B3F
:1030600004BF00220A7108F08FFC002070BD01F03F
:103070007F0C0CEB8C0110B500EBC101C1F888335B
:10308000C1F880230023C1F88C3381F8753381F8AF
:1030900074C3C37801F55D71012B08BF0A611CF090
:1030A000FF0F03D008F0EBFC002010BD08F0EEFB92
:1030B000FAE70069002261F30A1201681143016016
:1030C000704710B50A4611F0800F01F07F0314BF5E
:1030D00003EB830102EB820100EBC10114BF01F598
:1030E0008E7101F55D714FF0010C81F802C00B701B
:1030F000D2094A7008F0AAFC002010BD11F07F0C24
:1031000010B50CEB8C0100EBC1014FF0010481F80C
:103110001D4181F81CC1C1F82821C1F82C2101F5FD
:103120008E714FF00002C1E9053203D008F0A7FC10
:10313000002010BD08F0AAFBFAE710B5044608F01D
:10314000BFFD4FF0010C84F812C1002084F8140177
:10315000617840230246002913D902EB820104EB77
:10316000C10181F81DC181F81C21A1F8222181F83B
:103170001F01C1E94930C1F830016178521C914208
:10318000EBD8002211F0FF0F13D002EB820104EB09
:10319000C10181F8750381F87423A1F87A2381F8BD
:1031A0007703C1E9DF30C1F888036178521C91428E
:1031B000EBD8204608F044FB204608F0CBF900216C
:1031C000204608F0E9FD204608F054FA2046BDE804
:1031D000104008F002BD00002DE9F05F524CDFF80E
:1031E0004C912146484600F00BFA002808BFBDE884
:1031F000F09F2146484600F017F900222146484634
:1032000000F02EFA4A480078002868D10024DFF840
:1032100024B1494DDFF824A1DFF824810427264694
:103220001BF8040098F8001051B101290FD00229B1
:1032300014D003291BD0042923D0052937D049E015
:10324000FE2847D1012188F80010287044E0FC28AE
:1032500040D1022188F8001068703DE0002818BFB6
:10326000F12837D2032188F80010A87034E0FE2836
:1032700030D288F80070E87088F8010088F80260A1
:103280002AE098F8011029B3491E11F0FF0188F8CF
:10329000011098F8022005EB0203187102F10100F9
:1032A00088F8020004BF052088F8000014E088F8C0
:1032B000006098F802106A18107122480760481DD3
:1032C000C1B21D480FF044F8DAF80000401CCAF8FB
:1032D000000001E088F80060641CA22CA0DB4FF025
:1032E000C051484600F08AF8184C1749204600F0B3
:1032F00085F80021484600F0ADF80021204600F096
:10330000A9F8134C00220121204605F068FC002298
:103310000221204605F063FC0021204605F056FC02
:10332000BDE8F05FFFF7EEBD008000185860024076
:1033300040BC002084A0002002A3002060000020E8
:10334000300000205C00002020000020706002405F
:103350000038004070B51F4D1F4C2946204600F034
:103360004FF9002808BF70BD2946204600F05CF8E0
:1033700000222946204600F073F9184800780028FA
:1033800018BF70BD002516484570102002F05EF889
:103390001448154C154980ED000AD4ED030A30EEAF
:1033A000200A10EE100A84ED030A8842C3BF9FED85
:1033B000100A84ED030A24201A200FF0F5FA0D49B3
:1033C0000D4A0020A5600B5C1354401CA228FADBB8
:1033D00070BD0000208000207060024040BC0020D2
:1033E0004300002000A40020300000200AD7A33CA6
:1033F0000000000004A2002026A10020064A9042FE
:1034000034BF0648064811F0005F064A01EA02018F
:1034100014BFC160816070471064024000600240C8
:10342000006402407D0F7D0F064A904234BF06487B
:10343000064811F0005F064A01EA020114BFC160AC
:1034400081607047106402400060024000640240E6
:103450007D0F7D0F0029016814BF41F0010121F0AB
:1034600001010160704700002DE9F003016821F0BF
:10347000010101600021016041608160C160016162
:1034800021214161444A45494FF03D08904202BF25
:10349000C1F80880BDE8F0037047414A4FF47464F6
:1034A000904202BF8C60BDE8F00370473D4A4FF484
:1034B0007415904202BF8D60BDE8F00370473A4A30
:1034C0004FF07466904202BF8E60BDE8F003704713
:1034D000364B374A984202BFCA60BDE8F0037047D6
:1034E000DFF8D0C0344B604502BFCB60BDE8F003CD
:1034F0007047324FDFF8C8C0B84202BFC1F80CC0F5
:10350000BDE8F0037047DFF8BC904FF03D574845E9
:1035100002BFCF60BDE8F0037047DFF8AC902B49E5
:10352000484502BFC1F80080BDE8F0037047DFF8EE
:10353000A080404502BF0C60BDE8F0037047254CF9
:10354000A04202BF0D60BDE8F0037047224CA042CC
:1035500002BF0E60BDE8F0037047204C2049A04236
:1035600002BF0A60BDE8F00370471E4A904202BFE6
:103570000B60BDE8F00370471B4A904202BFC1F8E0
:1035800000C0BDE8F0037047184A904208BF0F60C2
:10359000BDE8F00370470000106002400060024088
:1035A0002860024040600240586002407060024063
:1035B0003D00002088600240400F0020A0600240D3
:1035C00000003D20B86002401064024008640240E0
:1035D0002864024040640240586402407064024023
:1035E0000C64024088640240A0640240B864024057
:1035F00001460020096811F0010F18BF0120704733
:10360000124A0023904234BF114A124ADFF848C0E0
:1036100011EA0C0F04BF406900F0800006D04FF0A3
:103620001E0C00680CEAD12C00EA0C0011F0005FBF
:1036300014BF52681268DFF824C002EA0C020A4282
:103640001CBF002801231846704700001064024088
:1036500000600240006402403C0F3C0F7D0F7D0F74
:1036600011F0800F07D04369002A0CBF23F08003BC
:1036700043F080034361802908BF704701F01E01B9
:10368000002A02680CBF22EA010111430160704761
:1036900010B402681B4BD1F80CC01A400B6843EA07
:1036A0000C03D1E905C44CEA040C43EA0C03D1F83D
:1036B0001CC043EA0C03D1F820C043EA0C03D1F844
:1036C00024C043EA0C03D1F828C043EA0C03D1F824
:1036D00034C043EA0C03D1F838C043EA0C031A4360
:1036E00002604269D1E90B3C22F0070243EA0C0375
:1036F0001A4342610A6942604A6882608968C1600F
:1037000010BC70473F801CF041607047002310B42C
:10371000A1F1010C1A46BCF1000F06DD845C521CBD
:103720002344D2B2DBB29445F8DC014411F8011C09
:1037300099421FBF8278022A10BC7047994201BF8C
:103740000178BA294178BF291CBF10BC7047827824
:103750004FF000044FF0010CA549012A01F66C134B
:103760007ED0B3EE0E0A022A7BD0032A1CBF10BC07
:10377000704781F800C04C60027990F805C01202D1
:1037800012B242EA0C0200EE902AF8EEE00A80EE55
:10379000801A81ED2A1A827990F807C0120212B2BB
:1037A00042EA0C0200EE902AF8EEE00A80EE801A5F
:1037B00081ED2B1A027A90F809C0120212B242EA85
:1037C0000C0200EE902AF8EEE00A80EE801A81EDFD
:1037D0002C1A827A90F80BC0120212B242EA0C0242
:1037E00000EE902AF8EEE00A80EE801A81ED2D1AA4
:1037F000027B90F80DC0120212B242EA0C0200EEF7
:10380000902AF8EEE00A80EE801A81ED2E1A827B73
:1038100090F80FC0120212B242EA0C0200EE902A97
:10382000F8EEE00A80EE801A81ED2F1A027C407CCF
:10383000120212B2104300EE900A0020F8EEE00AE5
:1038400080EE801A81ED301A0A1892F808C000EB59
:10385000400202EBC00203EBC20282F803C001E0A7
:103860000CE042E001EB800C401C9CED3F0AC0B232
:1038700082ED0B0A0E28E7D310BC704781F800C018
:103880004C6002790A7242794A7282798A72C279EC
:10389000CA72027A0A73427A4A73827A8A73C27A45
:1038A000CA73027B0A74427B4A74827B8A74C27B2D
:1038B000CA74027C0A75407C487500200A1892F888
:1038C00008C000EB400202EBC00203EBC20282F828
:1038D00003C001EB800C401C9CED230AC0B282EDBA
:1038E000070A0E28EAD310BC704781F800C04C606C
:1038F000027990F805C0120212B242EA0C0200EE00
:10390000902AF8EEE00A80EE801A81ED231A82797F
:1039100090F807C0120212B242EA0C0200EE902A9E
:10392000F8EEE00A80EE801A81ED241A027A90F80F
:1039300009C0120212B242EA0C0200EE902AF8EE1E
:10394000E00A80EE801A81ED251A827A90F80BC089
:10395000120212B242EA0C0200EE902AF8EEE00ADD
:1039600080EE801A81ED261A027B90F80DC01202BB
:1039700012B242EA0C0200EE902AF8EEE00A80EE63
:10398000801A81ED271A827B90F80FC0120212B2C2
:1039900042EA0C0200EE902AF8EEE00A80EE801A6D
:1039A00081ED281A027C407C120212B2104300EE14
:1039B000900A0020F8EEE00A80EE801A81ED291AC4
:1039C0000A1892F808C000EB400202EBC00203EBB9
:1039D000C20282F803C001EB800C401C9CED3F0A40
:1039E000C0B282ED0B0A0E28EAD310BC704700006B
:1039F00030CD00207047000070B4B0F1010C27BF3B
:103A0000164C4FF0E02170BC70474FF47A73206879
:103A10004A698D69521B5D106A434D69B2FBF5F22C
:103A200000EB4005C5EBC01002EB800220684D6939
:103A30008E69AD1B4FF4FA7675434E69B5FBF6F50A
:103A400000EB4006C6EBC01005EB8000801A8342F5
:103A5000ECD8BCF1010CD8D270BC704794000020A7
:103A6000DFF854C030B4DCF800104FF0E0225369A6
:103A700094691B1B4FF4FA7463435469B3FBF4F36A
:103A800001EB4104C4EBC11103EB8103DCF800102E
:103A900054699569641B4FF4FA756C435569B4FB1E
:103AA000F5F401EB4105C5EBC11104EB8101C91A25
:103AB0008142EBD330BC704794000020F5EEC00A81
:103AC000F1EE10FA86BFB5EEC01AF1EE10FA80EDF5
:103AD000000A10EE901AB1F17E5FB8BFDFED440A24
:103AE0006ADB10EE901AA1F17E51B1F1907F38BFE0
:103AF000DFED400A60D310EE901AA1F18041A1F5EC
:103B00002001B1F5000F38BFDFED3B0A54D310EEB2
:103B1000901AA1F18041A1F19071B1F5A00F38BFC9
:103B2000DFED360A48D310EE901AA1F18041A1F1E1
:103B3000B871B1F5401F38BFDFED310A3CD310EE4C
:103B4000901AA1F18041A1F1D071B1F5201F38BFC9
:103B5000DFED2C0A30D310EE901AA1F18041A1F1D3
:103B6000E471B1F5201F38BFDFED270A24D310EE32
:103B7000901AA1F18041A1F1F871B1F5B00F38BFF1
:103B8000DFED220A18D310EE901AA1F18041A1F1C5
:103B90001271B1F5880F38BFDFED1D0A0CD310EE9E
:103BA000901AA1F18041A1F12371B1F5701F34BFCA
:103BB000DFED180ADFED180A71EE201AC1EE210AB6
:103BC000F5EEC00AF1EE10FA38BFDFED140A06D3A5
:103BD00010EE901AB1F17E5FC8BFF7EE000A90EDCB
:103BE000001A30EE410A00EE201A80ED001A7047EC
:103BF00084F9A23EAF4C593DBB41BA3CAF4C593C55
:103C00004F63193CD70DED3BB827C13B3661823B72
:103C1000F3D62D3B3661023B8A9BD03A0000000070
:103C200010B504462DED068BB0EE608AF0EE418AA9
:103C3000B5EEC08AB0EE40AAF1EE10FA84BFF5EE00
:103C4000C08AF1EE10FA05D81AEE100AFCF799FEB8
:103C5000C4E9000118EE100AB0F17E5FB8BFDFEDD5
:103C60004F0A6ADB18EE100AA0F17E50B0F1907F87
:103C700038BFDFED4B0A60D318EE100AA0F1804088
:103C8000A0F52000B0F5000F38BFDFED460A54D391
:103C900018EE100AA0F18040A0F19070B0F5A00FCE
:103CA00038BFDFED410A48D318EE100AA0F180407A
:103CB000A0F1B870B0F5401F38BFDFED3C0A3CD32F
:103CC00018EE100AA0F18040A0F1D070B0F5201FCE
:103CD00038BFDFED370A30D318EE100AA0F180406C
:103CE000A0F1E470B0F5201F38BFDFED320A24D315
:103CF00018EE100AA0F18040A0F1F870B0F5B00FF6
:103D000038BFDFED2D0A18D318EE100AA0F180405D
:103D1000A0F11270B0F5880F38BFDFED280A0CD380
:103D200018EE100AA0F18040A0F12370B0F5701FCA
:103D300034BFDFED230ADFED230A38EEA00AC8EE18
:103D4000800AF5EEC00AF1EE10FA38BFDFED1E0A68
:103D500006D310EE900AB0F17E5FC8BFF7EE000AFE
:103D600010EE900AFCF70DFE41EC190B1AEE100A4A
:103D7000FCF707FE94ED008B53EC182BFCF7DDFCF1
:103D800053EC192BFCF7DFFC53EC182BFCF734FC3D
:103D9000C4E90001BDEC068B10BD000084F9A23E11
:103DA000AF4C593DBB41BA3CAF4C593C4F63193CF9
:103DB000D70DED3BB827C13B3661823BF3D62D3B97
:103DC0003661023B8A9BD03A0000000000000000F0
:103DD0002DE9F041FE4F2DED0A8B3878002804BF05
:103DE00001203870032001F031FBFA48FB4CB0EEA3
:103DF00040CA80ED030A443880ED030AF648007C8F
:103E0000002804BF2068002805D101F0CFFEB0EEE5
:103E10004C0A01F025FCB7EE00AA7888CAEE0C0A1D
:103E200000EE100A411C7980B8EE400AF4EEC00A98
:103E3000F1EE10FA24BFBDEC0A8BBDE8F0812068DA
:103E400000287CD1E64E4FF6FA707880B06FFCF710
:103E500098FD9FEDE58B53EC182BFCF7E6FCFCF787
:103E6000D3FD09EE100A706FFCF78BFD53EC182B95
:103E7000FCF7DBFCFCF7C8FD09EE900A306FFCF79D
:103E800080FD53EC182BFCF7D0FCFCF7BDFD00EED9
:103E9000900A96ED153AD6ED142A96ED132AD44AD7
:103EA000D449D548DFEDD5CAF0EE491AB0EE691A0B
:103EB000F0EE6C4AB0EE6C4AF0EE6C3AB0EE4C0AA2
:103EC0000CF0DAFAD6ED130A9FEDCD0ACD4820EEBC
:103ED000809AD6ED140A90ED001A60EE808AD6ED35
:103EE000150A20EE808A90ED020AD0ED010A68EEF4
:103EF00001BA68EE809A49EE40BA20EE080A48EE10
:103F0000609A01EE090A19EE900A00EEA80A30EE56
:103F10004ABAFCF736FD9FEDBCAB53EC1A2BFCF70D
:103F200012FCFCF771FDBA4DC5F8C4021BEE900AF5
:103F3000FCF727FD53EC1A2BFCF705FC00E095E39A
:103F4000FCF762FDC5F8C8021BEE100AFCF719FD6C
:103F500053EC1A2BFCF7F7FBFCF756FDC5F8CC0227
:103F6000A54890ED000AA34885ED5A0A90ED000A95
:103F70009F48B1EE400A85ED5B0A0068C5F8700104
:103F800085EDAD9AC5EDAE8A85EDAF8AFCF7F9FCFB
:103F900041EC100B0BF050F8D5EDAE0A20EE208A64
:103FA00095ED5C0A0EF0BCF9D5EDAD0A00EEC08AC5
:103FB00085EDA98AD5F87001FCF7E3FC41EC100B04
:103FC0000BF03AF8D5EDAD0A20EE208A95ED5C0AAB
:103FD0000EF0A6F9D5EDAE0AB0EE4C1AA5F10C0024
:103FE00000EE808A85EDAA8A95ED5A0AD7ED030A7C
:103FF000FFF764FDA5F10C0495ED5B0AB0EE4C1AD9
:10400000D7ED030A201DFFF759FD95ED5C0AB0EED0
:104010004C1AD7ED030A04F10800FFF74FFDC4ED79
:1040200002CA94ED000AB1EE400A10EE100AFCF745
:10403000A8FC41EC100B0AF0FFFFB0EE408A94EDB3
:10404000020AB1EE400A10EE100AFCF79AFC41ECAD
:10405000100B0AF0F1FF28EE000A85EDD40A94ED6A
:10406000000AB1EE400A0EF05BF9B0EE408A94ED22
:10407000010AB1EE400A0EF053F928EE008A94EDE1
:10408000020AB1EE400A10EE100AFCF77AFC41EC8D
:10409000100B0AF0D1FF28EE008A94ED010AB1EE70
:1040A000400A10EE100AFCF76CFC41EC100B0AF011
:1040B000C3FFF0EE408A94ED020AB1EE400A0EF022
:1040C0002FF908EEC08A85EDD78A94ED010AB1EE8A
:1040D000400A0EF025F9B0EE408A94ED020AB1EEE6
:1040E000400A0EF01DF928EE008A94ED010AB1EEA7
:1040F000400A10EE100AFCF744FC41EC100B0AF0E9
:104100009BFFF0EE408A94ED000AB1EE400A0EF0FB
:1041100007F968EE808A94ED020AB1EE400A10EECB
:10412000100AFCF72EFC41EC100B0AF085FF08EE9C
:10413000808A85EDDA8A94ED000AB1EE400A10EE2D
:10414000100AFCF71EFC41EC100B0AF075FFB0EEF4
:10415000408A94ED020AB1EE400A0EF0E1F828EE32
:10416000000A85EDD50A94ED010AB1EE400A10EE81
:10417000100AFCF706FC41EC100B0AF05DFFB0EEF4
:10418000408A94ED020AB1EE400A10EE100AFCF7E4
:10419000F8FB41EC100B0AF04FFF28EE008A94ED7B
:1041A000010AB1EE400A0EF0BBF8F0EE408A94ED41
:1041B000000AB1EE400A0EF0B3F868EE808A94ED82
:1041C000020AB1EE400A0EF0ABF808EE808A21E058
:1041D00004000020C4810020CCDB002038DC00205B
:1041E00000FF0020000000006666666666A64C4080
:1041F000600C0020580C00205C0C00200000000027
:104200000000803968FE00201F85EB51B89E2340D6
:10421000940D002085EDD88A94ED010AB1EE400A94
:1042200010EE100AFCF7ADFB41EC100B0AF004FF96
:10423000B0EE408A94ED000AB1EE400A0EF070F83C
:1042400028EE008A94ED020AB1EE400A0EF068F8FA
:1042500028EE008A94ED010AB1EE400A0EF060F8F3
:10426000F0EE408A94ED020AB1EE400A10EE100A18
:10427000FCF787FB41EC100B0AF0DEFE08EEC08A6B
:1042800085EDDB8A94ED000AB1EE400A0EF048F8A5
:10429000B1EE400A85EDD60A94ED010AB1EE400A6E
:1042A0000EF03EF8B0EE408A94ED000AB1EE400AFE
:1042B00010EE100AFCF765FB41EC100B0AF0BCFE97
:1042C00028EE000A85EDD90A94ED010AB1EE400A04
:1042D00010EE100AFCF755FB41EC100B0AF0ACFE97
:1042E000B0EE408A94ED000AB1EE400A10EE100ADA
:1042F000FCF747FB41EC100B0AF09EFE28EE000A8B
:1043000005F54B7105F5547085EDDC0A0CF0E2FE05
:10431000C4ED01CAC4ED02CA94ED000AB1EE400A30
:1043200010EE100AFCF72DFB41EC100B0AF084FE96
:10433000B0EE408A94ED020AB1EE400A10EE100A87
:10434000FCF71FFB41EC100B0AF076FE28EE000A8A
:1043500085EDE60A94ED000AB1EE400A0DF0E0FFAB
:10436000B0EE408A94ED010AB1EE400A0DF0D8FF9C
:1043700028EE008A94ED020AB1EE400A10EE100A0F
:10438000FCF7FFFA41EC100B0AF056FE28EE008A0B
:1043900094ED010AB1EE400A10EE100AFCF7F1FAB2
:1043A00041EC100B0AF048FEF0EE408A94ED020A50
:1043B000B1EE400A0DF0B4FF08EEC08A85EDE98A3F
:1043C00094ED010AB1EE400A0DF0AAFFB0EE408A6A
:1043D00094ED020AB1EE400A0DF0A2FF28EE008A29
:1043E00094ED010AB1EE400A10EE100AFCF7C9FA8A
:1043F00041EC100B0AF020FEF0EE408A94ED000A2A
:10440000B1EE400A0DF08CFF68EE808A94ED020A4E
:10441000B1EE400A10EE100AFCF7B3FA41EC100BB3
:104420000AF00AFE08EE808A85EDEC8A94ED000A17
:10443000B1EE400A10EE100AFCF7A3FA41EC100BA3
:104440000AF0FAFDB0EE408A94ED020AB1EE400A9D
:104450000DF066FF28EE000A85EDE70A94ED010AEB
:10446000B1EE400A10EE100AFCF78BFA41EC100B8B
:104470000AF0E2FDB0EE408A94ED020AB1EE400A85
:1044800010EE100AFCF77DFA41EC100B0AF0D4FD97
:1044900028EE008A94ED010AB1EE400A0DF040FFCB
:1044A000F0EE408A94ED000AB1EE400A0DF038FFBC
:1044B00068EE808A94ED020AB1EE400A0DF030FFFA
:1044C00008EE808A85EDEA8A94ED010AB1EE400A91
:1044D00010EE100AFCF755FA41EC100B0AF0ACFD97
:1044E000B0EE408A94ED000AB1EE400A0DF018FFDC
:1044F00028EE008A94ED020AB1EE400A0DF010FF9A
:1045000068EE008A94ED010AB1EE400A0DF008FF52
:10451000B0EE408A94ED020AB1EE400A10EE100AA5
:10452000FCF72FFA41EC100B0AF086FD48EE408AAA
:10453000C5EDED8A94ED000AB1EE400A0DF0F0FEF3
:10454000B1EE400A85EDE80A94ED010AB1EE400AA9
:104550000DF0E6FEB0EE408A94ED000AB1EE400A9E
:1045600010EE100AFCF70DFA41EC100B0AF064FD96
:1045700028EE000A85EDEB0A94ED010AB1EE400A3F
:1045800010EE100AFCF7FDF941EC100B0AF054FD97
:10459000B0EE408A94ED000AB1EE400A10EE100A27
:1045A000FCF7EFF941EC100B0AF046FD28EE000A8B
:1045B00005F55D7105F5667085EDEE0A0CF08AFD76
:1045C00096ED1C0A19EE900A85ED5D0A96ED1D0A1E
:1045D00085ED5E0A96ED1E0A85ED5F0AFCF7D1F9BE
:1045E0009FED258B53EC182BFCF7ADF8FCF70CFA7C
:1045F00000EE100AB0EE4C1AD7ED020A05F5D8709D
:10460000FFF75CFAB1EE6B0A10EE100AFCF7B9F98D
:1046100053EC182BFCF797F8FCF7F6F900EE100AAC
:10462000B0EE4C1AD7ED020A05F5DA70FFF746FA3C
:104630001BEE100AFCF7A5F953EC182BFCF783F8D6
:10464000FCF7E2F900EE100AB0EE4C1AD7ED020AC0
:1046500005F5DC70FFF732FAB0EE4C0ABDEC0A8BC0
:1046600004F5E160BDE8F0410EF016BBBDEC0A8B2D
:10467000BDE8F081000000009A999999999923402A
:104680002DE9F0475D4E00242DED028B3078012896
:104690001CBFBDEC028BBDE8F0875948594F00257F
:1046A0000088B880B6F912007969B0EB410F02DBDF
:1046B000FFF78EFB7582DFF850819FED548AD8F8A2
:1046C0000000002808BF52490CD101EB8400641C93
:1046D00080EDAE8A90ED140A0E2C80ED3E0A81F832
:1046E0003C50F2DB002000F0B1FEDFF828A110EE14
:1046F000100AAAF1440948498AED000A474C89ED9D
:10470000000A884202DD2069401C2061FEF7D0FAD1
:10471000052000F09BFE8AED050A89ED050AD7ED1C
:10472000060A70EE200AC7ED060A0EF0B9FCB6F9CB
:1047300014000528A8BFB582B6F916000528A8BF41
:10474000F582B6F91810786900EB8000B1EB800FA4
:1047500005DB35830E2000F079FE0DF0BDFA786997
:10476000B6F91A1000EBC00202EB0010B1EB400FDB
:10477000A4BF758300F058F8B6F91C1078694FF0A3
:10478000010900EB4002C2EBC010B1EB800F0DDB62
:10479000B5832561386A28B1012804BF3D620DF058
:1047A0008BFB03E0C7F820900DF00AFB192000F006
:1047B0004DFED7ED0A0A1A4930EE200A10EE100A13
:1047C00087ED0A0A814213DA87ED0A8AD8F80000D9
:1047D00070B1144890ED000AB5EEC00AF1EE10FA7F
:1047E00006D0786A002804BFC7F8249002F0AAF81F
:1047F0003570BDEC028BBDE8F0870000A081002081
:10480000A4000020040000204C0000200000000054
:1048100074E30020C4810020BC74133BC0F400206A
:104820000000A04174DC00202DE9F04707202DEDA9
:104830000A8B00F00BFEFE4880ED070A443880ED3D
:10484000070A9FEDFC9AB0EE490A01F035FAFA4CDE
:10485000207801F053FB607801F044FBF74E01270C
:10486000DFF8DC8396F89D06F649002500281CBF7A
:10487000087900281FD0DFF8D0934FF000049FED97
:10488000F48B09EB84004068FCF77BF853EC182BA1
:10489000FBF759FFFCF7B8F804EB440106EB810184
:1048A000C1F8F005601CC4B2042CEAD388F801708A
:1048B00086F89D561DE096F89E06012807D10A79D4
:1048C000002A1CBF88F8017086F89E5611D196F810
:1048D000E825012A06D10A7922B107F0A3FE86F85D
:1048E000E85506E0022804D10879002818BF86F8A8
:1048F0009E56D94FD94C97F8400084F8DC00DFED84
:10490000D89A002800F06E81B7F90400B0F57A7FDC
:10491000B8BF4FF47A7004DBB0F5FA6FC8BF4FF43C
:10492000FA60D04EB080C4F8E000B7F9000000EEA5
:10493000100AB8EEC00A9FEDCC8AF0EE480A0DF0DE
:104940006DF9BDEEC00AF0EE480A10EE100A00B292
:104950003080C4F8E400B7F9020000EE100AB8EEA7
:10496000C00A0DF05BF9BDEEC00AF0EE480A10EE89
:10497000100A00B27080C4F8E800B7F9060000EE33
:10498000100AB8EEC00A0DF049F9BDEEC00A10EEEB
:10499000100A00B2F080C4F8EC00B7F90C10B18135
:1049A000C4F81811B7F90E20F281C4F81C21B7F928
:1049B00010303382C4F82031B7F912307382C4F852
:1049C000243140F24C439FEDAACB9FEDABBB9FED52
:1049D000ACABD4F8E0C06345C4BFD4F8E4C0BCF5C8
:1049E000E16F03DD8342C8BF012000DC002084F8B2
:1049F000DD00A2F2DC50C4F80011FBF785FF53EC98
:104A00001B2BFBF712FF53EC1C2BFBF7CDFF3CBF1E
:104A1000B0EE4C8AF0EE6C8A22D3D4F81C01A0F2DE
:104A2000DC50FBF771FF53EC1B2BFBF7FEFEB0EEE7
:104A30004A8AF0EE6A8A53EC182BFBF7CDFF0FD3AE
:104A4000D4F81C01A0F2DC50FBF75EFFB0EE4B1A6D
:104A5000F0EE6B1A53EC112BFBF7E7FE41EC180B51
:104A600051EC180BFBF7D0FFC4F81001D4F820016B
:104A7000C4F80801C4ED0A9AC4ED0B9AB7F9060010
:104A8000A0F2DC50FBF740FF53EC1B2BFBF7CDFEF5
:104A900053EC1C2BFBF788FF3CBFB0EE4C8AF0EECA
:104AA0006C8A22D3B7F90600A0F2DC50FBF72CFF8A
:104AB00053EC1B2BFBF7B9FEB0EE4A8AF0EE6A8A84
:104AC00053EC182BFBF788FF0FD3B7F90600A0F2C1
:104AD000DC50FBF719FFB0EE4B1AF0EE6B1A53ECFB
:104AE000112BFBF7A2FE41EC180B51EC180BFBF756
:104AF0008BFFA063B6F90200A0F2DC50FBF704FFC5
:104B000053EC1B2BFBF791FE53EC1C2BFBF74CFFDC
:104B10003CBFB0EE4C8AF0EE6C8A22D3B6F90200AC
:104B2000A0F2DC50FBF7F0FE53EC1B2BFBF77DFEF5
:104B3000B0EE4A8AF0EE6A8A53EC182BFBF74CFF72
:104B40000FD3B6F90200A0F2DC50FBF7DDFEB0EEA9
:104B50004B1AF0EE6B1A53EC112BFBF766FE41EC8F
:104B6000180B51EC180BFBF74FFF2063B6F9000050
:104B7000A0F2DC50FBF7C8FE53EC1B2BFBF755FEF5
:104B8000B0EE4C8AF0EE6C8A53EC182BFBF70CFF5E
:104B90001ED3B6F90000A0F2DC50FBF7B5FE53ECD3
:104BA0001B2BFBF742FEB0EE4A8AF0EE6A8A53EC0A
:104BB000182BFBF711FF0BD3B6F90000A0F2DC5065
:104BC000FBF7A2FE53EC1B2BFBF72FFE41EC180B5F
:104BD00051EC180BFBF718FF00EE100AB1EE400A7B
:104BE00084ED0D0A786C411C79642828C8BF87F8C9
:104BF0004C5025494888421C4A807D2888BF4D700A
:104C00006068411C61602828C4BF257225701F4858
:104C1000B7EE000A1E49D0ED000A30EE801A80ED92
:104C2000001A10EE900A8842C4BF1A48056033E0AB
:104C3000C4810020CDCC4C3DE0020020940D00202A
:104C400000FF0020CCDB002094BA00200000000010
:104C50004A0C022B8716F13F1CD50020C07D002096
:104C600000000000E0DB00200000484200000000DF
:104C7000000000000000F0BF0000000000407F4086
:104C8000000000000000F03FA4D00020480A0020EF
:104C900000002042400A00208D49DFF838C2086831
:104CA000421C0A60282805DD8B48CCF800500168BA
:104CB000491C0160894C8A4B0020C0EB001104EBB9
:104CC00001111E1891F8662072708A6E561C8E664D
:104CD0000A2AC8BF81F86650401CC0B20E28ECD327
:104CE000DCF800207F4900EE902ADFF8FCC1F8EEE6
:104CF000E00AC1ED030AC1ED029A9CF80000002809
:104D000018BF002010D00CEB000491ED021A247A99
:104D1000401C00EE904AC0B20E28F8EE600A71EE18
:104D2000200AC1ED020AEED3C1ED049AC1ED059A45
:104D3000002003EB000C9CF801C0BCF1010F05D171
:104D4000D1ED040A70EE800AC1ED040A401C072868
:104D5000EFDB072003EB000C9CF801C0BCF1010F56
:104D600005D1D1ED050A70EE800AC1ED050A401C9F
:104D70000E28EFDB5D494868431C4B601928C8BF0B
:104D80000D605B4E5B4C7078002804BF6078002893
:104D900005D1002A1CBFC4ED079A03F097FC607888
:104DA00013287CD014DC70B3012842D011286ED0B7
:104DB00012281CBFBDEC0A8BBDE8F087B0EE490A93
:104DC000122002F095FCA0B9BDEC0A8BBDE8F0877B
:104DD00015286CD0162873D017281CBFBDEC0A8B81
:104DE000BDE8F087B0EE490A172002F081FC0028E8
:104DF000EAD0C4ED079A65707570BDEC0A8BBDE80A
:104E0000F04703F063BC03F061FCE069FBF7B9FD18
:104E10009FED391B53EC112BFBF7EEFBFBF7F4FD79
:104E20003749E0618842CFDBC4ED079A6078401CC7
:104E300022E0707811280ED0122812D0132816D034
:104E400015281BD0B0EE490ABDEC0A8B1420BDE832
:104E5000F04702F04DBCC4ED079A03F037FC112077
:104E60000AE0C4ED079A03F031FC122004E0C4ED1F
:104E7000079A03F02BFC13206070A5E7C4ED079A96
:104E800003F024FC152060709EE708E0FFE7B0EE19
:104E9000490A112002F02CFC0028AAD194E7B0EEB8
:104EA000490A132002F024FC0028A2D18CE7B0EEBE
:104EB000490A152002F01CFC00289AD184E7FFE77C
:104EC000B0EE490A162002F013FC002891D17BE7CE
:104ED000500000204C0000207400002094E70020C7
:104EE00074E3002074DC002030CD002038DC00208A
:104EF00090140020040000209A9999999999A93F4B
:104F0000CDCCCC3D70B500244FF4805000F03AF881
:104F1000002808BF70BD4FF48051144800F0A2F87B
:104F2000E8B1134E134AB588C5EBC50004EB001178
:104F30001155611CCCB2A22CF8D30E4B00214FF0BE
:104F4000A20C08461C5C401C21446045FAD3C1F108
:104F5000FF0082F8A100681CB080FDF7D3FFBDE818
:104F600070404FF4805000F007B800000004024089
:104F70003000002026A10020014908607047000091
:104F8000143C0140054A00211268054B02401B6891
:104F900003421CBF002A012108467047003C014023
:104FA000143C01402DE9F0010022012603270B6883
:104FB00006FA02FC03EA0C0363453BD10568530083
:104FC00007FA03F4A54305600D79D0F800809D40F1
:104FD00045EA080505600D79012D18BF022D1AD18B
:104FE000856825EA040585604D79D0F8088005FAC2
:104FF00003F545EA08058560456825EA0C0CC0F80C
:1050000004C0D0F804C08D7905FA02F5ADB24CEABF
:10501000050CC0F804C0D0F80CC02CEA040CC0F891
:105020000CC091F807C00CFA03F3D0F80CC043EAA7
:105030000C03C36002F10102102AB8D3BDE8F001ED
:1050400070474B07DB0E9A40C90800EB8100016AEC
:105050004FF00F0C0CFA03F399430162016A1143FC
:10506000016270470246002012690A4218BF0120FF
:105070007047418370472DE9F04F4FF0000CDDE998
:1050800009874FF001094FF0030A09FA0CF501EA0C
:105090000504AC4238D1D0F800B04FEA4C040AFA0B
:1050A00004F62BEA060BC0F800B0D0F800B002FA04
:1050B00004FE4BEA0E0BC0F800B0012A18BF022A0A
:1050C00018D1D0F808B02BEA060BC0F808B0D0F819
:1050D00008B008FA04FE4BEA0E0BC0F808B0D0F88E
:1050E00004B02BEA05054560456803FA0CFB45EA68
:1050F0000B054560C56825EA0605C560C56807FA61
:1051000004F445EA0404C4600CF1010CBCF1100F76
:10511000BBD3BDE8F08F018370470000164A10B57D
:105120005178164BC9B14FF0000C01291CD05854CE
:10513000481CC0B25070642838BF10BD82F801C04E
:105140000E4800F057F9002808BF10BD0B49BDE814
:105150001040A1F1C00000F013B8B52806BF1870C8
:10516000012010BD507010BD622812BF82F801C02E
:1051700058700220F6D010BDC0020020D0BB002025
:105180002DE9F04101262DED048B05460C460670F5
:105190000020688085F8606085F85F6085F85E6053
:1051A00085F85D6095ED0A0AB8EEC00A85ED0C0A37
:1051B00095ED0B0AB8EEC00A85ED0D0AA07E687168
:1051C000677F2F71A07FE17F94F8212000EB012001
:1051D00094F82010090401EB02610844FBF794FBEA
:1051E0009FED7B9B53EC192BFBF71FFB41EC180B3E
:1051F00085ED068B94F8220094F8231094F825206E
:1052000000EB012094F82410090401EB026108442A
:10521000FBF77AFB53EC192BFBF707FB41EC190B5F
:1052200085ED029B94F8360094F8371094F83920F5
:1052300000EB012094F83810090401EB02610844E6
:10524000A86294F83A1094F83B2094F83D3001EBB2
:10525000022194F83C20120402EB036211445E4ADE
:1052600082FB00308310A3EBE070A86282FB011088
:105270008110A1EBE070E86294F83E0094F84110D0
:1052800094F83F2040EA016094F84010090441EA94
:105290000221084300EE100AB8EEC00ADFED4F0A03
:1052A00080EE201A85ED101A94F8420094F845100B
:1052B00094F8432040EA016094F84410090441EA5C
:1052C0000221084300EE100AB8EEC00ADFED440ADE
:1052D00080EE201A85ED281A94F82E0094F83110EB
:1052E00094F82F2040EA016094F83010090441EA54
:1052F00002210843A5F8B40094F8320094F8351060
:1053000094F8332040EA016094F83410090441EA2B
:1053100002210843A5F8B60094F84A0094F84D100D
:1053200040EA016094F84C1094F84B20090441EADB
:1053300002210843A5F8B80094F84E0094F85110E3
:1053400094F84F2040EA016094F85010090441EAB3
:1053500002210843FBF7E9FA9FED231B53EC112BC5
:10536000FBF7F1F9FBF750FBC5F8B00095F890009A
:10537000062F0DD368B985F8906085ED1C8B9FEDE5
:105380001C0A85ED1A9B85ED200A85ED210A00E0B7
:10539000A8B195ED1A0B51EC190B53EC102BFBF740
:1053A000CCF9FBF7CFFAA86795ED1C0B51EC180B65
:1053B00053EC102BFBF7C1F9FBF7C4FAE86795F83B
:1053C0005C00401C85F85C00BDEC048BBDE8F081FE
:1053D00000000000D01263416766666600007AC470
:1053E00000007A4400000000F168E388B5F8E43E6C
:1053F00000000000017990F805C0002201EB0C21AB
:105400001FFA81FC10491346BCF1640FA1F804C0D7
:1054100084BF0020704730B402210CF10604022C36
:1054200008D9455C491C2A44D2B2134489B2DBB284
:105430008C42F6D860448179914205BFC079984288
:105440000020012030BC7047C0020020264901EB3B
:105450000010264990ED000A80ED010A09684FF01E
:10546000E0225369D2F818C05269A3EB0C034FF441
:10547000FA7C03FB0CF3B3FBF2F201EB4103C3EB49
:10548000C11102EB810100EE101ADFED190AB8EE2E
:10549000400A80EE201A80ED001A90ED000AD0ED4F
:1054A000010AB4EEE00AF1EE10FADCBF90ED030A57
:1054B00080ED020A0BDD90ED000AD0ED010A30EE1E
:1054C000600A80ED020A90ED020A80ED030A90ED79
:1054D000020A10EE101AB1F17C5FCCBFB6EE000AE2
:1054E00090ED020A7047000028B4002094000020CC
:1054F000002474492DE9F04105461448016821F063
:10550000C0010160016841F040010160104F4FF09F
:105510000008C7F8888244460126E809C7F88C02CB
:105520006806050E02200AF0B9FCC7F8886202205E
:105530000AF0B4FCC7F8888202200AF0AFFC601CB5
:10554000C4B2082CE9D3BDE8F0810000000002409D
:105550000000404270B50D48016821F0C0010160B3
:10556000016841F040010160094C0120C4F88C023F
:10557000C4F88802042004F522740AF08FFC002588
:10558000656004200AF08AFC256070BD00000240BE
:10559000000040420E4810B5016821F0C0010160D2
:1055A000016841F0400101600A4C0020C4F8880203
:1055B000C4F88C02042004F522740AF06FFC012068
:1055C00020606060BDE8104004200AF067BC000065
:1055D00000000240000040422DE9F0411E4E002430
:1055E000306820F0C0003060306830601B4D01270B
:1055F000C5F88C7238460AF051FCC5F88872012053
:105600000AF04CFCD5F80C02002100B3601CC4B2B7
:10561000FA2C18D9306820F0C0003060306840F0B3
:1056200040003060C5F88812C5F88C1204200AF0DA
:1056300035FCC5F88872C5F88C7204200AF02EFC7F
:105640000120BDE8F081D5F80C020028DED1C5F8B4
:1056500088120020BDE8F0810000024000004042B6
:105660002DE9F04F002425462E462DED028B3746BE
:10567000B84683B0B0EE408AC14600F0FFFEDFF8C6
:10568000A0C4DFF8A0A44FF0010EBCF90420AAF8D2
:105690000420BCF90610AAF80610BCF90800AAF804
:1056A0000800BCF90AB0AAF80AB000EE10BABCF9BA
:1056B0000C30AAF80C30F8EEC01A00EE103ABCF923
:1056C0000EC0DFF864B4AAF80EC0B8EEC01A00EE3F
:1056D00010CA9BF800305B1CB8EEC00ADBB28BF836
:1056E00000300A2B38BF5B1C08BF002392BF8BF829
:1056F00001308BF800408BF801E0DAED3D0ADFF86D
:105700002CC4B0EEE02A12EE103A63450FDC9AED9D
:105710003E2AB0EEC22A12EE103A634507DC9AED3B
:105720003F2AB0EEC22A12EE103A9C4501DA8AF8FE
:1057300002E09AF802C0FE4BBCF1000F36D002EE38
:10574000102ADAED2B2AB8EEC22A72EE600A9AED20
:105750003A2A20EE822ADFEDF70A02EEE02A83EDF4
:10576000002A02EE101ADAED3E2AB8EEC22A32EE14
:10577000622ADAED3B2A22EE222ADAED2C2A02EE08
:10578000E02A83ED012A02EE100ADAED3F2AB8EE94
:10579000C22A32EE622ADAED3C2A22EE222ADAED21
:1057A0002D2A02EEE02A83ED022A1DE000EE902A67
:1057B0009AED2B2AF8EEE00A70EEC20AC3ED000A59
:1057C00000EE901A9AED2C2AF8EEE00A70EEC20A6A
:1057D000C3ED010A00EE900A9AED2D2AF8EEE00AD8
:1057E00070EEC20AC3ED020ADAED310AD24A71EE56
:1057F000E01AC3ED041ADAED320A71EE600AC3ED65
:10580000030A9AED331A30EE412A83ED052A93ED0F
:10581000000A9BF80000BDEEC00A10EE101A22F834
:10582000101093ED010A02EB4000BDEEC00A10EE2D
:10583000101AC18293ED020ABDEEC00A10EE101AD2
:10584000BDEEE10A818510EE101ABDEEE00AA0F867
:10585000581010EE101ABDEEC20AA0F8421010EE59
:10586000101AA0F86E10002032F910100C4402EB50
:105870004001401CB1F91630C0B21D44B1F92C30C2
:105880000A281E44B1F958309844B1F94230B1F9B0
:105890006E101F448944E7D300EE104AF2EE042A4A
:1058A000A648B8EEC00AC0EE220A00EE105AB8EEC2
:1058B000C00AC0EE221A00EE106AC0ED000AB8EE6F
:1058C000C00A80EE222A00EE108AC0ED011AB8EE5E
:1058D000C01A81EE220A80ED022A80ED040A00EE51
:1058E000107AB8EEC00A80EE221A00EE109AB8EED6
:1058F000C00A80ED031A80EE221A80ED051ACAED67
:10590000100ACAED111A8AED122AD0ED040A90EDA0
:10591000030A90ED051ACAED160A8AED170A8AEDF8
:10592000181ADAED160A9FED860A60EE800ACAEDB3
:10593000190ADAED170A60EE800ACAED1A0ADAEDE2
:10594000180A20EE800A8AED1B0AB0EE480A00F021
:1059500021FB734CB0EE481ADBED020AB4F9B80033
:1059600000EE100A6846B8EEC00AFEF7A7F8B4F9D0
:10597000BA00B0EE481A00EE100ADBED020A6D46DE
:10598000B8EEC00A01A8FEF799F8B4F9BC00B0EE71
:10599000481A00EE100ADBED020A05F10800B8EE25
:1059A000C00AFEF78BF89DED000ABDEEC00A10EEAE
:1059B000100A00B2AAF804019DED010ABDEEC00A6A
:1059C00010EE101A09B2AAF806119DED020ABDEEFA
:1059D000C00A10EE102A00EE100A5A4812B2AAF8B5
:1059E0000821B8EEC00ADAED440A30EE600ADAEDBA
:1059F000500A60EE200A00EE101ACAED5C0AB8EEFA
:105A0000C00A9AED451A30EE410A9AED511A60EE3D
:105A1000011A00EE102ACAED5D1AB8EEC00A9AED1E
:105A2000461A30EE410A9AED521A20EE012A8AED0A
:105A30005E2ACAED1F0ACAED201A8AED212AC07A11
:105A400000286BD0404DB0EE481ADBED020A95ED10
:105A5000000A3E48B8EEC00AFEF730F895ED010A9C
:105A60003A4CB0EE481AB8EEC00ADBED020A201D2F
:105A7000FEF724F895ED020AB0EE481ADBED020AB3
:105A8000B8EEC00A04F10800FEF718F894ED000A19
:105A9000BDEEC00A10EE100A00B2AAF80A0194ED99
:105AA000010ABDEEC00A10EE101A09B2AAF80C11D4
:105AB00094ED020ABDEEC00A10EE102A00EE100AA4
:105AC00012B2AAF80E21B8EEC00ADAED470A30EE9B
:105AD000600ADAED530A20EE200A00EE901A8AEDF1
