:020000040800F2
:10000000380E002049010008512600085326000838
:10001000572600085B2600085F2600080000000045
:10002000000000000000000000000000632600083F
:100030006526000800000000672600086926000801
:100040006301000863010008630100086301000800
:1000500063010008630100086301000863010008F0
:1000600063010008630100086301000863010008E0
:1000700063010008630100086301000863010008D0
:100080006301000895270008630100086301000868
:10009000853500086301000863010008630100085A
:1000A00063010008630100086301000863010008A0
:1000B0006301000863010008B92700086301000814
:1000C0006301000863010008630100086301000880
:1000D000630100086B260008CD2600082F270008C2
:1000E0006301000863010008793500086301000816
:1000F0006301000863010008630100086301000850
:10010000630100086301000863010008630100083F
:10011000630100086301000863010008630100082F
:10012000630100086301000863010008630100081F
:10013000DFF810D005F0D2FE004800470D2500087A
:10014000AFF30080380E002006488047064800477D
:10015000FEE7FEE7FEE7FEE7FEE7FEE7FEE7FEE777
:10016000FEE7FEE74B020008310100080CB5002055
:10017000019000906C48006840F480306A49086043
:1001800000BF6948006800F4003000900198401CEE
:100190000190009818B90198B0F5A06FF1D16248AC
:1001A000006800F4003010B10120009001E0002050
:1001B00000900098012843D15C48006840F010008E
:1001C0005A4908600846006820F0030008600846A5
:1001D000006840F002000860534840685249486097
:1001E0000846406848600846406840F480604860BF
:1001F0000846406820F47C1048600846406840F497
:10020000E81048600846006840F08070086000BF51
:100210004548006800F000700028F9D04248406866
:1002200020F00300404948600846406840F0020062
:10023000486000BF3C48406800F00C000828F9D135
:100240000CBD10B5FFF792FF10BD10B53648006821
:1002500040F00100344908600846406834490840CD
:100260003149486008460068324908402E49086014
:100270000846006820F4802008600846406820F4A2
:10028000FE0048604FF41F008860FFF7DAFF4FF070
:1002900000602949086010BD10B50021002000222F
:1002A000214B5B6803F00C0121B1042906D0082919
:1002B00028D107E0214B224C236027E01F4B204C24
:1002C000236023E0184B5B6803F47010164B5B68E7
:1002D00003F48032022303EB904022B9194B4343CD
:1002E000174C23600DE0104B5B6803F4003323B11F
:1002F000144B4343124C236003E0104B4343104C18
:10030000236003E00D4B0E4C236000BF00BF064B83
:100310005B68C3F303130C4CE15C094B1B68CB40D7
:10032000074C236010BD0000001002400020024076
:100330000000FFF8FFFFF6FE08ED00E000127A0073
:100340000000002000093D00040000203149014365
:10035000314A1160704770B5002100230F22C47824
:1003600004B32D4C246804F4E064C4F5E064210A6D
:10037000C1F10403CA40447804FA03F184781440BC
:1003800021430901254C0678A155047804F01F0586
:100390000124AC4005786D11AD0005F1E025C5F8EC
:1003A000004109E0047804F01F050124AC401C4D15
:1003B0000678761145F8264070BD1A4A0A40024375
:1003C000154B1B1F1A60704739B1134A121D126872
:1003D0000243114B1B1D1A6006E00F4A121D1268E2
:1003E00082430D4B1B1D1A607047042808D14FF043
:1003F000E021096941F004014FF0E022116107E0BA
:100400004FF0E021096921F004014FF0E022116171
:10041000704700000000FA050CED00E000E400E089
:1004200080E100E080FFFF1F10B50446FA488442D7
:1004300008D10121401500F00DFF0021601500F0EA
:1004400009FF17E0F548844208D10121001500F0AA
:1004500001FF0021201500F0FDFE0BE0F048844272
:1004600008D10121C80300F0F5FE00214FF400403F
:1004700000F0F0FE10BD30B50246002000235068A9
:10048000E84C20400D790C6844EA05242043506074
:100490009068E54C2040D1E902542C434D7944EA60
:1004A000450420439060D06A20F470000C7C641EE8
:1004B000E4B2234340EA0350D06230BD0021016022
:1004C000017141718160C16001210174704721B1E6
:1004D000826842F00102826003E0826822F0010239
:1004E0008260704721B1826842F48072826003E0CA
:1004F000826822F480728260704710B50023CBB20C
:100500001AB144681C43446002E044689C43446060
:1005100010BD816841F008018160704701460020EC
:100520008A6802F008020AB1012000E0002070474A
:10053000816841F0040181607047014600208A68AB
:1005400002F004020AB1012000E00020704721B14E
:10055000826842F4A002826003E0826822F4A00272
:1005600082607047014600208A6802F480020AB166
:10057000012000E00020704710B50A46002100234A
:10058000416821F46041531E41EA4331416010BD8E
:1005900021B1426842F40062426003E0426822F402
:1005A000006242607047F0B504460D46002000210D
:1005B000092D11DDE068A5F10A0606EB46070726BE
:1005C00006FA07F18843A5F10A0606EB460603FA88
:1005D00006F10843E0600CE0206905EB45070726BB
:1005E00006FA07F1884305EB450603FA06F10843CE
:1005F0002061072A0FDA606B561E06EB86071F265E
:1006000006FA07F18843561E06EB860605FA06F140
:100610000843606322E00D2A0FDA206BD61F06EB39
:1006200086071F2606FA07F18843D61F06EB8606C3
:1006300005FA06F10843206310E0E06AA2F10D0616
:1006400006EB86071F2606FA07F18843A2F10D067E
:1006500006EB860605FA06F10843E062F0BD21B11B
:10066000826842F48012826003E0826822F4801281
:10067000826070470146C86C80B2704766484C3053
:100680000068704721B1426842F48062426003E032
:10069000426822F480624260704721B1426842F4AD
:1006A0008052426003E0426822F480524260704708
:1006B0000A460021816821F4E041114381607047BE
:1006C00021B1826842F40042826003E0826822F431
:1006D00000428260704721B1826842F40212826057
:1006E00003E0826822F40212826070470146002013
:1006F0008A6802F400120AB1012000E0002070476D
:10070000F0B504461546002000220026092911DD17
:10071000E068A1F10A0707EB470C072707FA0CF27C
:100720009043A1F10A0707EB470703FA07F21043CA
:10073000E0600CE0206901EB410C072707FA0CF29E
:10074000904301EB410703FA07F210432061A06BCD
:10075000C0F30156EF1C06F1010CA7EB0C0707EBE9
:10076000870C1F2707FA0CF29043EF1C06F1010CCF
:10077000A7EB0C0707EB870701FA07F21043A0630A
:10078000F0BD10B50A4600210023816B21F4401111
:10079000531E41EA0351816310BD08B50023009345
:1007A0000090009B0B440093009B1A6008BD08B5A5
:1007B000024600200090009201F12800009B18449E
:1007C00000900098006880B208BD0A460021416888
:1007D000164B194011434160704741628262704775
:1007E0000A460021416821F01F0111434160704712
:1007F00040B109490831096841F40001064A08324C
:10080000116007E004490831096821F40001024A37
:1008100008321160704700000024014000280140A8
:10082000003C0140FFFEF0FFFDF7F1FFFFFD3FFF41
:100830000246002013680B400BB1012000E00020AD
:100840007047CA430260704770B50246002000231B
:1008500000240B125568CEB205EA060415681D4047
:1008600015B10CB1012000E0002070BD00220A1279
:10087000D34303607047000001684FF6FE721140D9
:1008800001600021016041608160C1608D49884242
:1008900008D18C490839496841F00F01894A083A62
:1008A00051608AE087491431884208D18549083966
:1008B000496841F0F001834A083A51607DE081497E
:1008C0002831884208D17F490839496841F470616C
:1008D0007C4A083A516070E07A493C31884208D13C
:1008E00078490839496841F47041764A083A5160BC
:1008F00063E074495031884208D172490839496827
:1009000041F470216F4A083A516056E06D496431F4
:10091000884208D16B490839496841F47001694A35
:10092000083A516049E067497831884208D1654901
:100930000839496841F07061624A083A51603CE008
:100940006149884206D1011F096841F00F01021F69
:10095000116032E05C491431884208D15A49091FBC
:10096000096841F0F001584A121F116025E056490C
:100970002831884208D15449091F096841F470613F
:10098000514A121F116018E04F493C31884208D18A
:100990004D49091F096841F470414B4A121F11600B
:1009A0000BE049495031884207D14749091F09687E
:1009B00041F47021444A121F1160704710B50022A3
:1009C000026847F6F0739A430C6A8B6823430C69FC
:1009D00023434C6923438C692343CC6923434C6AEA
:1009E00023438C6A23431A430260CB6843600B683D
:1009F00083604B68C36010BD00210160416081606D
:100A0000C160016141618161C161016241628162D4
:100A1000704721B1026842F00102026004E00268FE
:100A20004FF6FE731A40026070471AB103680B4319
:100A3000036002E003688B430360704741607047C6
:100A40000146486880B2704701460020002201F04C
:100A500080531BB11C4B083B1A6802E0194B083B42
:100A60001A6802EA01030BB1012000E00020704780
:100A700000F0805119B11449091F086002E01149C2
:100A800008394860704701460020002201F0805379
:100A90001BB10D4B083B1A6802E00A4B083B1A6871
:100AA00002EA01030BB1012000E00020704700F0D2
:100AB000805119B10449091F086002E00149083951
:100AC0004860704708000240080402400020444982
:100AD0000860091D0860091D0860091D086041487B
:100AE0003F4914310860704700213D498279002A4E
:100AF0003AD00A46126803689A430B461A600A1DE8
:100B0000126803689A430B1D1A60027911440A683F
:100B100003681A430A60324A0832126803689A432B
:100B20002F4B08331A601A1D126803689A432C4B26
:100B30000C331A604279102A0ED11A1F126803680A
:100B40001A43274B08331A601A1D126803681A43A8
:100B5000234B0C331A600DE02149427911440A6895
:100B600003681A430A6005E0027911440A680368C1
:100B70009A430A6070470021016001710C214171A4
:100B80000021817170471649103109680143144AE8
:100B900010321160704701460020114A1432126869
:100BA0000A400AB1012000E0002070470C491431CE
:100BB00008607047014600200022094B1B6803EAC9
:100BC0000102074B14331B680B4013B10AB101201B
:100BD00000E00020704702491431086070470000AF
:100BE00000040140FFFF0F0010B50446CC488442CA
:100BF00008D10121042000F02DFB0021042000F089
:100C000029FB46E0C748844208D10121082000F0B2
:100C100021FB0021082000F01DFB3AE0C24884427D
:100C200008D10121102000F015FB0021102000F058
:100C300011FB2EE0BD48844208D10121202000F0A4
:100C400009FB0021202000F005FB22E0B848844287
:100C500008D10121402000F0FDFA0021402000F0E1
:100C6000F9FA16E0B348844208D10121802000F04F
:100C7000F1FA0021802000F0EDFA0AE0AE4884424B
:100C800007D10121801500F0E5FA0021A01500F040
:100C9000E1FA10BD10B50121084600F0DBFA002191
:100CA000012000F0D7FA10BD2DE9F04102460025E1
:100CB0000026002000230024002791F803C00CF038
:100CC0000F0591F803C00CF0100CBCF1000F03D01D
:100CD00091F802C04CEA050591F800C0BCF1000F84
:100CE00031D0146800202BE04FF0010C0CFA00F317
:100CF000B1F800C00CEA03069E4220D183004FF0F9
:100D00000F0C0CFA03F7BC4305FA03FC4CEA04048D
:100D100091F803C0BCF1280F06D14FF0010C0CFA7A
:100D200000FCC2F814C00AE091F803C0BCF1480FFF
:100D300005D14FF0010C0CFA00FCC2F810C0401CA9
:100D40000828D1D31460B1F800C0BCF1FF0F34DD26
:100D5000546800202EE000F1080C4FF0010808FA5A
:100D60000CF3B1F800C00CEA03069E4221D18300C7
:100D70004FF00F0C0CFA03F7BC4305FA03FC4CEAE6
:100D8000040491F803C0BCF1280F05D100F1080C50
:100D900008FA0CF8C2F8148091F803C0BCF1480FAF
:100DA00007D100F1080C4FF0010808FA0CF8C2F85E
:100DB0001080401C0828CED35460BDE8F0814FF667
:100DC000FF710180022181700421C17070470246C9
:100DD000002093680B400BB1012000E00020704719
:100DE0000146886880B2704702460020D3680B40F5
:100DF0000BB1012000E0002070470146C86880B2B6
:100E0000704701617047416170470AB1016100E0BC
:100E100041617047C16070474FF480320A4382617C
:100E20008161826182698269704702460020434B7A
:100E300018684FF68073184040EA021008433F4B91
:100E4000186070473E49C8617047F0B50A460023F4
:100E500000240021002500F00046B6F1004F02D129
:100E6000364EF16901E0354E7168C0F3034583B237
:100E700000F44016B6F5401F08D121F070612F4EE6
:100E8000766826F070662D4F7E6012E000F48016C2
:100E9000B6F5801F06D1032606FA05F4A14341F0FA
:100EA000706106E0460D360103FA06F6B14341F0E3
:100EB000706122B1460D360103FA06F6314300F0A7
:100EC0000046B6F1004F02D11C4EF16101E01B4E0D
:100ED0007160F0BD30B500228B071C0F0F2303FAA1
:100EE00004F2164B08338C1053F824309343134C00
:100EF00008348D1044F8253023468C1053F82430E4
:100F00008C07240F00FA04F423430C4C08348D1092
:100F100044F8253030BD0A49DC31086070470000D4
:100F200000080140000C0140001001400014014085
:100F300000180140001C0140002001400000014059
:100F400000002042DF48006840F00100DD490860F1
:100F500008464068DC490840DA49486008460068AD
:100F6000DA490840D74908600846006820F4802024
:100F700008600846406820F4FE0048604FF41F00F7
:100F800088607047CF49096821F48031CD4A1160EB
:100F90001146096821F480211160B0F5803F03D02B
:100FA000B0F5802F0ED106E0C649096841F48031C2
:100FB000C44A116007E0C349096841F4A021C14A4D
:100FC000116000E000BF00BF704710B5014600226D
:100FD000002300204A11012A02D1BA4C236806E0FE
:100FE000022A02D1B74C236A01E0B64C636A01F0D1
:100FF0001F02012494401C400CB1012000E000209D
:1010000010BD38B5002000900024002500BF31201D
:10101000FFF7DBFF05460098401C00900098B0F5F4
:10102000A06F01D0002DF2D03120FFF7CEFF08B124
:10103000012400E00024204638BD01460020A14ADA
:10104000106820F0F80040EAC10010607047A04925
:1010500008607047024600209A4B586820F47C10C4
:1010600042EA01031843974B586070479849086655
:10107000704701460020934A506820F0030008435F
:10108000506070478F48406800F00C007047014680
:1010900000208C4A506820F0F000084350607047F0
:1010A00001460020874A506820F4E0600843506001
:1010B000704701460020834A506820F4605040EA9F
:1010C000C1005060704729B17E4A527A02437D4B7D
:1010D0005A7204E07B4A527A82437A4B5A727047C2
:1010E0007B49D8310860704701460020754A506836
:1010F00020F440400843506070470021714A20327C
:101100001170704A82F82010012802D004280AD1F8
:1011100004E001216B4A2032117005E00521694A83
:101120002032117000E000BF00BF704769490860BD
:1011300070476449096A0143624A11627047654910
:1011400044390860704730B5002100220024002394
:101150005C4D6D6805F00C0121B1042905D008290A
:1011600023D105E05C4D056022E05B4D05601FE08A
:10117000544D6D6805F47012524D6D6805F480345D
:10118000022505EB92421CB9544D554305600BE016
:101190004C4D6D6805F400351DB1504D554305604B
:1011A00002E04D4D5543056002E04B4D056000BF28
:1011B00000BF444D6D6805F0F0010909484D6B5CB6
:1011C0000568DD4045603F4D6D6805F4E061090A42
:1011D000434D6B5C4568DD4085603A4D6D6805F4B4
:1011E0006051C90A3E4D6B5C4568DD40C560354DB8
:1011F0006D6805F44041890B3A4D6B5CC568B5FBE1
:10120000F3F5056130BD29B12E4A526902432D4BD9
:101210005A6104E02B4A526982432A4B5A61704753
:1012200029B1284A92690243264B9A6104E0254A73
:1012300092698243234B9A61704729B1214AD2694E
:101240000243204BDA6104E01E4AD26982431D4BFF
:10125000DA61704729B11B4AD2680243194BDA6040
:1012600004E0184AD2688243164BDA60704729B10D
:10127000144A12690243134B1A6104E0114A1269BD
:101280008243104B1A617047124940390860704719
:101290000F49C86470470B49C87170470948406AD4
:1012A00040F0807007494862704701460020054AB7
:1012B00092680A400AB1012000E00020704701490D
:1012C00088727047001002400000FFF8FFFFF6FE32
:1012D000000042428004424200127A0000093D00B0
:1012E000140000202400002010B50446FE4884426B
:1012F00008D10121C014FFF7ADFF0021E014FFF772
:10130000A9FFC4E0B4F1804F08D101210846FFF7DE
:10131000AEFF00210120FFF7AAFFB8E0F3488442A6
:1013200008D101210220FFF7A2FF00210220FFF7D0
:101330009EFFACE0EE48844208D101210420FFF773
:1013400096FF00210420FFF792FFA0E0E9488442C5
:1013500008D101210820FFF78AFF00210820FFF7AC
:1013600086FF94E0E448844208D101211020FFF771
:101370007EFF00211020FFF77AFF88E0DF488442DB
:1013800008D101212020FFF772FF00212020FFF764
:101390006EFF7CE0DA48844208D101214014FFF757
:1013A00059FF00216014FFF755FF70E0D5488442D3
:1013B00009D10121C804FFF74DFF00214FF400209F
:1013C000FFF748FF63E0D048844209D101210805B6
:1013D000FFF740FF00214FF48010FFF73BFF56E07E
:1013E000CA48844209D101214805FFF733FF002193
:1013F0004FF40010FFF72EFF49E0C548844208D1A2
:1014000001214020FFF733FF00214020FFF72FFF8D
:101410003DE0C048844208D101218020FFF727FF2A
:1014200000218020FFF723FF31E0BB48844208D130
:1014300001218015FFF71BFF0021A015FFF717FF03
:1014400025E0B648844209D101210804FFF702FFD4
:1014500000214FF48030FFF7FDFE18E0B0488442D1
:1014600009D101214804FFF7F5FE00214FF40030B7
:10147000FFF7F0FE0BE0AB48844208D1012188045D
:10148000FFF7E8FE00214FF48020FFF7E3FE10BDD8
:1014900000220288944B98420ED0994B98420BD070
:1014A000B0F1804F08D0914B984205D0904B9842B4
:1014B00002D0904B984204D14FF68F731A404B885C
:1014C0001A438D4B984207D08C4B984204D04FF66C
:1014D000FF431A40CB881A4302808B8883850B8890
:1014E0000385814B98420BD0854B984208D08B4B9B
:1014F000984205D08A4B984202D08A4B984201D13B
:101500000B7A038601238382704770B50024002282
:101510000023058C4FF6FE7635400584028C8388C7
:10152000048B4FF68F752C40B51E2C400D882C4334
:10153000751E2A400D892A434D882A436A4DA842C8
:101540000BD06F4DA84208D0744DA84205D0744D01
:10155000A84202D0734DA84213D14FF6F7752A4026
:101560004D892A434FF6FB752A408D882A434FF652
:10157000FF652B404FF6FF552B408D892B43CD89BE
:101580002B4383800483CD888586028470BD70B52B
:10159000002400220023058C4FF6EF7635400584A9
:1015A000028C8388048B48F6FF752C404FF6FF456C
:1015B0002C400D884FF6FF7606EA05252C434FF6A2
:1015C000DF752A400D8906EA05152A434D8806EA8B
:1015D00005152A43444DA84202D0494DA8421DD1C9
:1015E0004FF67F752A404D894FF6FF7606EA0515BE
:1015F0002A434FF6BF752A408D8806EA05152A430F
:101600004FF6FF352B404FF2FF752B408D8906EAD0
:1016100085052B43CD8906EA85052B43838004830A
:10162000CD880587028470BD70B500240022002398
:10163000058C4FF6FF6635400584028C8388848BC9
:101640004FF68F752C404FF6FC752C400D882C43BF
:101650004FF6FF552A400D894FF6FF7606EA05251D
:101660002A434D8806EA05252A431F4DA84202D089
:10167000234DA8421DD14FF2FF752A404D894FF6E8
:10168000FF7606EA05252A434FF6FF352A408D8866
:1016900006EA05252A434EF6FF752B404DF6FF75E9
:1016A0002B408D8906EA05152B43CD8906EA0515E1
:1016B0002B4383808483CD888587028470BD70B579
:1016C000002200230024058C4EF6FF763540058469
:1016D000038C8488828B48F6FF752A404FF6FF45BD
:1016E0002A400D8820E00000002C0140000400404A
:1016F00000080040000C00400010004000140040B2
:1017000000340140004C01400050014000540140B1
:1017100000180040001C0040002000400040014034
:1017200000440140004801404FF6FF7606EA0525D7
:101730002A434DF6FF752B400D8906EA05352B43EC
:101740004D8806EA05352B43FA4DA84202D0FA4DE2
:10175000A84208D14BF6FF752C408D894FF6FF76D5
:1017600006EA85152C4384808283CD88A0F84050FA
:10177000038470BD828B4FF2FF331A408283828BC9
:101780004FF6FF7303EA01231A4382837047F0B5D3
:101790000C461546002200210026078C4EF6FF7CE1
:1017A00007EA0C070784828B018C4FF6FF7707EA64
:1017B000043640F6FF473A404FF6FF7707EA052721
:1017C0003A434FF6FF7707EA03373A43D94FB84217
:1017D0000ED0D94FB8420BD0B0F1804F08D0D74FC0
:1017E000B84205D0D64FB84202D0D64FB84206D143
:1017F0004DF6FF77394046F48057394305E047F608
:10180000FF57394044F48057394382830184F0BD47
:10181000828B4FF6F3731A408283828B0A43828352
:101820007047F0B50C461546002200210026078CB3
:101830004FF6FF6C07EA0C070784828B018C4FF68A
:10184000FF7707EA04264FF60C773A404FF6FF770A
:1018500007EA03172F433A43B64FB8420ED0B64FAC
:10186000B8420BD0B0F1804F08D0B44FB84205D089
:10187000B34FB84202D0B34FB84206D14FF6FF572C
:10188000394046F48077394305E04FF2FF5739403D
:1018900044F48077394382830184F0BD028B4FF298
:1018A000FF331A400283028B4FF6FF7303EA0123D2
:1018B0001A4302837047F0B50C46154600220021FA
:1018C0000026078C4FF6EF7C07EA0C070784028B93
:1018D000018C4FF6FF7707EA041640F6FF473A40BF
:1018E0004FF6FF7707EA03373A434FF6FF7707EAE9
:1018F00005273A438F4FB8420ED08F4FB8420BD0D6
:10190000B0F1804F08D08D4FB84205D08C4FB8420F
:1019100002D08C4FB84206D14FF6DF77394046F0FF
:101920001007394305E04FF65F77394044F0100760
:10193000394302830184F0BD028B4FF6F3731A40E2
:101940000283028B0A4302837047F0B50C461546AA
:1019500000220021068C4FF6FE773E400684028B63
:10196000018C4FF60C7632407E1C06EA03162E439D
:101970003243704EB0420ED06F4EB0420BD0B0F139
:10198000804F08D06D4EB04205D06D4EB04202D0AF
:101990006C4EB04206D14FF6FD76314044F0010660
:1019A000314305E04FF6F576314044F0010631430E
:1019B00002830184F0BD70B505460C465D48854242
:1019C0000ED05D4885420BD0B5F1804F08D05B4802
:1019D000854205D05A48854202D05A48854200D1F6
:1019E00000E000BF208850B92389A288618828467A
:1019F000FFF7ABFFE1882846FFF79EFF25E0208830
:101A000004280AD12389A28861882846FFF753FF5A
:101A1000E1882846FFF742FF17E0208808280AD10E
:101A20002389A28861882846FFF7FBFEE1882846C3
:101A3000FFF7EEFE09E02389A28861882846FFF7B8
:101A4000A6FEE1882846FFF795FE70BD2DE9F0411E
:101A500005460C4600260127608808B9022600E0EA
:101A60000026A088012801D1022700E00127208854
:101A7000A0B92389A28861882846FFF766FFE1881C
:101A80002846FFF759FF23893A4631462846FFF793
:101A900012FFE1882846FFF701FF13E02389A2889F
:101AA00061882846FFF707FFE1882846FFF7F6FE22
:101AB00023893A4631462846FFF747FFE188284602
:101AC000FFF73AFFBDE8F0810A884B881A438B88FC
:101AD0001A43CB881A430B891A434B891A438B89C3
:101AE0001A43A0F8442070474FF6FF71818000210F
:101AF0000180C180418001727047002101804180D6
:101B00008180C180018141818181C1817047002133
:101B100001804180012181800021C18001817047C5
:101B20000021018041808180C180018141818181CA
:101B300070470000002C01400034014000040040C8
:101B400000080040000C004021B1028842F0010270
:101B5000028004E002884FF6FE731A40028070474C
:101B600031B1B0F8442042F40042A0F8442005E02E
:101B7000B0F84420C2F30E02A0F8442070471AB116
:101B800083890B43838102E083898B438381704780
:101B90008182704741EA0203A0F8483070471AB1C9
:101BA00083890B43838102E083898B438381704760
:101BB00001894FF6F8721140018170470A460021F1
:101BC00001894FF68F73194011430181704730B579
:101BD00004460D4629462046FFF7F0FF208940F0D5
:101BE0000700208130BD2DE9F04104460D46164620
:101BF0001F46602D06D13B46012231462046FFF7A5
:101C00005AFE05E03B46012231462046FFF79DFE85
:101C100029462046FFF7D2FF208940F007002081A7
:101C2000BDE8F08130B50C4600210189C9B24FF6FC
:101C3000FF7505EA0325154325432943018130BD7E
:101C40002DE9F04105460E461746984600244346C6
:101C50003A4631462846FFF7E5FF2C894FF6F870E3
:101C6000044044F007044FF68F70044044F07004C1
:101C70002C81BDE8F081F0B504460D4616461F469E
:101C80003B46324629462046FFF7CCFF208940F4E8
:101C900080402081F0BD0185828270470A46002184
:101CA00001884FF68F731940114301807047F0B5DA
:101CB0000C4615461E460021002200230189028B96
:101CC000038C4FF6F877394021434FF6FC473A40F2
:101CD00040F201173A434FF6DD773B404FF6FF776E
:101CE00007EA06172F433B43018102830384F0BDBB
:101CF0000A460021018B4FF68F731940114301836F
:101D000070470A460021018B48F6FF7319404FF6D1
:101D1000FF7303EA02231943018370470A46002137
:101D2000818B4FF68F7319401143818370470A46A8
:101D30000021818B48F6FF7319404FF6FF7303EAC9
:101D4000022319438183704721B1028842F0800247
:101D5000028004E002884FF67F731A4002807047C9
:101D600021B1828842F00402828004E082884FF62A
:101D7000FB731A408280704721B1828842F00802CA
:101D8000828004E082884FF6F7731A4082807047A1
:101D900021B1828842F00102828004E082884FF6FD
:101DA000FE731A40828070470A460021018B4FF66D
:101DB000F77319401143018370470A460021018BD4
:101DC0004FF2FF7319404FF6FF7303EA02231943E2
:101DD000018370470A460021818B4FF6F773194043
:101DE0001143818370470A460021818B4FF2FF73B4
:101DF00019404FF6FF7303EA0223194381837047AA
:101E00000A460021018B4FF6FB73194011430183F1
:101E100070470A460021018B4FF6FF3319404FF6F9
:101E2000FF7303EA02231943018370470A46002126
:101E3000818B4FF6FB7319401143818370470A462B
:101E40000021818B4FF6FF3319404FF6FF7303EAF1
:101E500002231943818370470A460021018B4FF604
:101E60007F7319401143018370470A460021018B9B
:101E7000C1F30E014FF6FF7303EA022319430183F6
:101E800070470A460021818B4FF67F73194011433A
:101E9000818370470A460021818BC1F30E014FF602
:101EA000FF7303EA02231943818370470A46002126
:101EB000018C4FF6FD7319401143018470470A46A7
:101EC0000021018C4FF6F7731940114301847047CC
:101ED0000A460021018C4FF6DF7319404FF6FF735D
:101EE00003EA02131943018470470A460021018C5A
:101EF0004FF67F7319404FF6FF7303EA021319433D
:101F0000018470470A460021018C4FF6FF531940A7
:101F10004FF6FF7303EA02231943018470470A4610
:101F20000021018C4FF2FF7319404FF6FF7303EA53
:101F300002231943018470470A460021018C4DF6A3
:101F4000FF7319404FF6FF7303EA0233194301840C
:101F5000704730B5002301248C40A3B2048C9C430D
:101F60000484048C02FA01F5ADB22C43048430BD24
:101F700030B5002304248C40A3B2048C9C43048419
:101F8000048C02FA01F5ADB22C43048430BD70B567
:101F90000346002000241846183001258D40ACB2BD
:101FA0001D8CA5431D8409B1082909D100EB6100EE
:101FB000056825F0700505600568154305600EE0AD
:101FC0000D1FC5F34E052844056825F4E04505605E
:101FD00005684FF6FF7606EA02263543056070BDB8
:101FE00021B1028842F00202028004E002884FF62A
:101FF000FD731A400280704721B1028842F004024A
:10200000028004E002884FF6FB731A40028070479A
:1020100021B1828842F08002828004E082884FF6FB
:102020007F731A408280704702884FF6F7731A4018
:10203000028002880A430280704782884FF68F73BD
:102040001A40828082880A438280704702894FF654
:10205000F8731A40028102890A430281704702899B
:102060004FF67F731A40028102890A43028170474A
:1020700081847047818570478186704701877047EA
:1020800081877047A0F84010704702884FF6FF43E1
:102090001A40028002880A43028070470146888EF7
:1020A00070470146088F70470146888F7047014688
:1020B000B1F8400070470146888C70470146088D92
:1020C000704702460020138A0B400BB1012000E04C
:1020D00000207047CA430282704730B50246002094
:1020E00000230024158A05EA0103958905EA010405
:1020F00013B10CB1012000E0002030BDCA430282C0
:102100007047000010B50446FB48844209D1012104
:102110008803FFF79FF800214FF48040FFF79AF8FB
:1021200032E0F648844209D101214804FFF79FF8C4
:1021300000214FF40030FFF79AF825E0F048844280
:1021400009D101218804FFF792F800214FF4802083
:10215000FFF78DF818E0EB48844209D10121C8044B
:10216000FFF785F800214FF40020FFF780F80BE01F
:10217000E548844208D101210805FFF778F80021DD
:102180004FF48010FFF773F810BD2DE9F04786B0CB
:1021900005460E460024A24600BFA1460027B0898E
:1021A00000B100BF2F462C8A4CF6FF700440F08827
:1021B00004432C82AC894EF6F3100440B088318978
:1021C0000843718908430443AC81AC8A4FF6FF4051
:1021D0000440B0890443AC8201A8FEF7B4FFC648AE
:1021E000874202D1DDF810A001E0DDF80CA0A8893B
:1021F00000F4004040B10AEBCA0000EB0A1031685D
:102200004900B0FBF1F807E00AEBCA0000EB0A1046
:1022100031688900B0FBF1F86420B8FBF0F00401EC
:102220002009642101FB1089A88900F4004040B115
:10223000322000EBC900B0FBF1F000F007000443CE
:1022400008E0322000EB09106421B0FBF1F000F04F
:102250000F0004432C8106B0BDE8F0874FF41651FF
:10226000016000218180C18001810C214181002118
:102270008181704710B502460020108A4FF2FF039B
:1022800018400B884C8823438C882343CC882343F5
:102290001843108210BD0021018041808180C180DF
:1022A000704721B1828942F40052828104E0828920
:1022B0004DF6FF731A4082817047F0B50346002443
:1022C00000260025002040F66A17B94200D100BF61
:1022D0001846C1F3421401F01F06012707FA06F55C
:1022E000012C01D10C3004E0022C01D1103000E0AF
:1022F00014301AB107682F43076002E00768AF4344
:102300000760F0BD1AB1838A0B43838202E0838A9F
:102310008B4383827047028A4FF6F0731A40028221
:10232000028A0A430282704782894FF2FF731A4081
:10233000828182890A438281704721B1828942F079
:102340000202828104E082894FF6FD731A40828185
:102350007047028A4FF6DF731A400282028A0A43EC
:102360000282704721B1028A42F48042028204E074
:10237000028A4BF6FF731A4002827047C1F30802CB
:102380008280704701468888C0F3080070478189C1
:1023900041F0010181817047028BD2B20283028B2E
:1023A00042EA012202837047028B02F47F420283D9
:1023B000028B0A430283704721B1828A42F02002D5
:1023C000828204E0828A4FF6DF731A40828270476D
:1023D00021B1828A42F01002828204E0828A4FF6A2
:1023E000EF731A408282704721B1828A42F008025C
:1023F000828204E0828A4FF6F7731A408282704725
:1024000021B1828942F40042828103E08289C2F3D1
:102410000E028281704721B1828A42F40062828278
:1024200004E0828A4FF2FF731A4082827047828AE8
:102430004FF6FB731A408282828A0A438282704777
:1024400021B1828A42F00202828204E0828A4FF63F
:10245000FD731A408282704702460020B1F5007F6A
:1024600000D100BF13880B400BB1012000E0002019
:10247000704701F40072B2F5007F00D100BFCA437B
:102480000280704770B5024600240023002500201A
:1024900040F66A16B14200D100BFC1F3421501F007
:1024A0001F03012606FA03F3012D02D1968933405A
:1024B00006E0022D02D1168A334001E0968A3340AD
:1024C0000C12012606FA04F41688344013B10CB13C
:1024D000012000E0002070BD10B50022002340F66E
:1024E0006A14A14200D100BF0A1201249440A3B291
:1024F000DC43048010BD000000380140004400406F
:1025000000480040004C004000500040B2B0C821DC
:10251000684603F0B0F8482000F080FB00F09AFB1A
:1025200000F062FF00F00CFC00F058FC01F03EF9F6
:102530004FF47A7000F00FFC00F090FE00F020FFE6
:1025400000F002FA62B679E03D48807801280FD1A8
:1025500000203B49887000F09CFB054603F0EDFA33
:102560000446384903F023F93749086000F04DFD6F
:102570003348407901280ED10020314948710120AB
:1025800000F087FB054603F0D8FA04462D4903F016
:102590000EF92D4948602A48807A012810D102207E
:1025A00000F077FB054603F0C8FA0446254903F01E
:1025B000FEF82549886000202149887200F064FAFD
:1025C0001F48007D01280ED1032000F062FB054664
:1025D00003F0B3FA04461B4903F0E9F81A49C8604E
:1025E0000020174908751648407E012811D10420A3
:1025F00000F04FFB054603F0A0FA0446114903F032
:10260000D6F81149086100200D4948760F4800F0BE
:1026100046FE0B4890F8320001280FD1052000F04B
:1026200038FB054603F089FA0446064903F0BFF873
:10263000054948610020024981F8320084E7000022
:102640004C06002000247449B0040020CDCC4C3D41
:10265000704700BFFEE700BFFEE700BFFEE700BF18
:10266000FEE7704770477047704710B5082157481C
:10267000FFF7F2FE012806D108215448FFF7F9FEC2
:102680005248FFF77FFE40F225515048FFF7FAFE0F
:10269000D8B14E48FFF776FEC4B24D48407858B1E5
:1026A00021464C48FFF76AFE00BF80214948FFF7EA
:1026B000D3FE0028F9D004E040F225514348FFF74B
:1026C0000BFF40214148FFF7D4FE10BD10B5082193
:1026D0004048FFF7C1FE012806D108213D48FFF719
:1026E000C8FE3C48FFF74EFE40F225513948FFF73F
:1026F000C9FED8B13748FFF745FEC4B234488078E8
:1027000058B121463348FFF739FE00BF80213148D8
:10271000FFF7A2FE0028F9D004E040F225512D4831
:10272000FFF7DAFE40212B48FFF7A3FE10BD10B5DE
:1027300008212948FFF790FE012806D108212648E4
:10274000FFF797FE2448FFF71DFE40F2255122486F
:10275000FFF798FEE8B12048FFF714FEC4B21C480A
:10276000C07858B121461B48FFF708FE00BF802102
:102770001848FFF771FE0028F9D001E000F02BF9AE
:1027800040F225511448FFF7A7FE40211248FFF7F9
:1027900070FE10BD10B500244FF00070FEF768F910
:1027A00000210E48FEF735F914200C49091D086078
:1027B00001200B49087010BD10B501210948FFF731
:1027C0008CFC012801D100F046FE10BD003801400C
:1027D0003C000020004400400048004080000240CF
:1027E0004000002000080040F0B587B005460C46C8
:1027F00016461F46012144F20400FEF711FD4FF476
:102800000070ADF8180003208DF81A0018208DF81C
:102810001B0006A9F848FEF747FA4FF48060ADF8B0
:10282000180004208DF81B0006A9F348FEF73CFAB7
:1028300025208DF8040003208DF805008DF8060092
:1028400001208DF8070001A8FDF785FD0294002006
:10285000ADF80C00ADF80E00ADF81000ADF81400A6
:102860000C20ADF8120002A9E448FFF78EFC01220B
:1028700040F22551E148FFF720FD0121DF48FFF735
:1028800010FD07B0F0BD00B58BB001210846FEF782
:10289000BAFCDA48001D0090D9480190102002903F
:1028A00014200390002004908020059000200690C2
:1028B000079020200890C001099000200A906946E6
:1028C000D048FEF77BF80121CE48FEF7A2F80BB006
:1028D00000BD00B58DB001210846FEF794FCCA4842
:1028E0000190C7480290102003901420049000200B
:1028F00005908020069000200790089009904FF4E2
:1029000080500A9000200B9001A9BE483C30FEF791
:1029100055F80121BB483C30FEF77BF8012202212B
:10292000B8483C30FEF781F811208DF830000020C7
:102930008DF8310001208DF832008DF833000CA89D
:10294000FDF709FD0DB000BD10B5012302224FF4C3
:102950007A311846FFF748FF10BD10B504462146EE
:10296000A648FFF70BFD00BF4021A448FFF774FD08
:102970000028F9D010BDF0B599B0024614460020E9
:102980000023002C00DA524200BF0A2592FBF5F624
:1029900005FB16253035EDB20DF800500A2592FBE7
:1029A000F5F2401C002AF0DC002C04DA2D27054645
:1029B000401C0DF8057000250DF80050401E04E085
:1029C0001DF80050CD545B1C401E0028F8DA00258D
:1029D000CD5419B0F0BD704770B504460D46012CBA
:1029E0000BD129468548FFF7C9FC00BF80218348E9
:1029F000FFF732FD0028F9D01CE0022C0DD129464A
:102A00008148001FFFF7BAFC00BF80217E48001FED
:102A1000FFF722FD0028F8D00CE0032C0AD129464C
:102A20007A48FFF7ABFC00BF80217848FFF714FD20
:102A30000028F9D070BD70B504460D46E1B26F486C
:102A4000FFF79CFC00BF40216C48FFF705FD002804
:102A5000F9D0204670BD10B5044600BF202167485C
:102A6000FFF7FAFC0028F9D06448FFF78BFC10BD93
:102A700070B505460E46002403E0285DFFF76DFFA4
:102A8000641CB442F9DB70BD70B58EB00026002422
:102A9000AA222146641C01A84254AF222146641C8C
:102AA000425401222146641C425400222146641CE7
:102AB00042545749C86803F056F800B200909DF898
:102AC00001202146641C01A842549DF800202146A3
:102AD000641C42544E49086803F045F800B2009067
:102AE0009DF801202146641C01A842549DF8002055
:102AF0002046611CCCB201A90A544549486803F03C
:102B000032F800B200909DF801202046611CCCB242
:102B100001A90A549DF800202046611CCCB201A9ED
:102B20000A543B49086903F01EF800B200909DF872
:102B300001202046611CCCB201A90A549DF8002056
:102B40002046611CCCB201A90A543149486903F0FE
:102B50000AF800B200909DF801202046611CCCB21A
:102B600001A90A549DF800202046611CCCB201A99D
:102B70000A54284802782046611CCCB201A90A54A4
:102B8000244842782046611CCCB201A90A5422484C
:102B900002782046611CCCB201A90A541E48427832
:102BA0002046611CCCB201A90A541B4882782046F9
:102BB000611CCCB201A90A541748C2782046611C96
:102BC000CCB201A90A54201FC0B28DF8070000251D
:102BD00005E001A8405D3044C6B2681CC5B2A542FC
:102BE000F7DB2046611CCCB201A90E54214601A896
:102BF000FFF73EFF0EB070BD0008014000380140F5
:102C000028000020440002400444004000480040E6
:102C10002C0600205C000020580000204FF0E0212E
:102C2000096921F004014FF0E0221161C21700EBA5
:102C30005272C2F3C702644B1A701946097801EB4D
:102C40004102C2EBC1114FF6FF7202EAC1015F4AB5
:102C5000118070470EB501210220FEF7EEFA5C48A4
:102C6000FEF742FB4FF6FF70ADF804004720ADF8C9
:102C700000000020ADF80600ADF802008DF8080055
:102C800069465348FEF704FC01215148FEF75CFFFA
:102C90000EBD70B504464E492431088802F04DFF40
:102CA00004EB44014B4A42F8210004EB4402494B37
:102CB00003EB8202516804EB440253F8220002F055
:102CC000DFFF12D204EB4402424B03EB8202516855
:102CD00004EB440253F8220002F031FD04EB4401FE
:102CE0003C4A02EB8101886017E004EB4400394A5A
:102CF00002EB80004168384802F021FD054604EBF4
:102D00004400344A52F82010284602F0C6FC04EB76
:102D10004401304A02EB8101886004EB44002D49F4
:102D200051F8200004EB44012A4A02EB810148607B
:102D300004EB440102EB8101886802F02DFF70BDB5
:102D400010B5002404E02046FFF7A3FF601CC4B2C6
:102D50000A2CF8DB10BD01461C4A12884A434FF08A
:102D6000E0235A6100229A6101221A6100BF4FF0EC
:102D7000E022106900F001021AB100F48032002A4A
:102D8000F5D000224FF0E0231A619A6170470146A6
:102D90000D4A12784A434FF0E0235A6100229A61AB
:102DA00001221A6100BF4FF0E022106900F0010219
:102DB0001AB100F48032002AF5D000224FF0E0234F
:102DC0001A619A617047000044000020460000200C
:102DD00000040040EC04002000FF7F4700B591B0E4
:102DE00001210C20FEF71CFA01214802FEF718FA17
:102DF00001210846FEF707FA1F20ADF84000002029
:102E00008DF8430010A9FE48FDF74EFFFD48FDF781
:102E100033FDFD480090FD480190002002906420A1
:102E200003900020049080200590400006908000D0
:102E30000790202008900002099000200A9069461F
:102E4000F048FDF7BBFD0121EE48FDF7E2FDEE483D
:102E50004C38FDF7E9FA00200B9001208DF8300086
:102E60008DF831004FF460200D9000200E90052069
:102E70008DF83C000BA9E4484C38FDF7FCFA012121
:102E8000E1484C38FDF723FB0121DF484C38FDF7C2
:102E900029FB4FF40040FEF727F906230122002109
:102EA000D9484C38FDF77FFB062302220121D64882
:102EB0004C38FDF778FB062303220221D2484C3818
:102EC000FDF771FB062304220321CF484C38FDF7A0
:102ED0006AFB062305220421CB484C38FDF763FB2F
:102EE000C9484C38FDF715FB00BFC7484C38FDF703
:102EF00015FB0028F9D1C4484C38FDF719FB00BF79
:102F0000C1484C38FDF719FB0028F9D10121BE4812
:102F10004C38FDF71CFB11B000BD10B5044607236B
:102F200001222146B8484C38FDF73DFB0121B64847
:102F30004C38FDF70CFB00BF0221B3484C38FDF7BD
:102F400077FC0028F8D0B0484C38FDF793FB10BD53
:102F500030B585B0054600241421684602F08BFB8D
:102F600019E004EB8400A94A32F8100000990844E3
:102F7000009004EB8400401C32F8100001990844D2
:102F8000019004EB8400801C32F810000299084480
:102F90000290601C84B2142CE3DB14210098B0FB77
:102FA000F1F028800198B0FBF1F068800298B0FB46
:102FB000F1F0A88005B030BD70B5064600240025AC
:102FC00000BF05E03046FFF7A8FF0544601CC4B20F
:102FD000142CF7DB1420B5FBF0F080B270BD10B5F7
:102FE00002460021002300BF08E0052000FB01206D
:102FF000864C34F810000344481CC1B21429F4DB99
:103000001420B3FBF0F080B210BD2DE9FC5F01206D
:10301000FFF7E5FF002801DA00200BE00120FFF7B1
:10302000DEFFB0F5805F02DD4FF4805002E001204A
:10303000FFF7D5FF4042019002F084FD8046002258
:10304000734B02F00BFD06460022724B02F094FC1B
:1030500082460022704B02F0E8FB044602F0F4FDC9
:103060006E4908600220FFF7BAFF002801DA00204D
:103070000BE00220FFF7B3FFB0F5805F02DD4FF4F5
:10308000805002E00220FFF7AAFF019002F05AFDF3
:10309000824600225E4B02F0E1FC804600225D4B3E
:1030A00002F06AFC064600225D4B02F0BEFB0446BD
:1030B00002F0CAFD594948600320FFF790FF00283D
:1030C00001DA00200BE00320FFF789FFB0F5805FF5
:1030D00002DD4FF4805002E00320FFF780FF0190F3
:1030E00002F030FD82460022494B02F0B7FC8046D8
:1030F0000022484B02F040FC06460022484B02F0FA
:1031000094FB044602F0A0FD444948610420FFF707
:1031100066FF002801DA00200BE00420FFF75FFFC4
:10312000B0F5805F02DD4FF4805002E00420FFF72D
:1031300056FF019002F006FD82460022344B02F059
:103140008DFC06460022334B02F016FC044600229A
:10315000334B02F06AFB804602F076FD2F4908618E
:103160000020FFF73CFF054602F0E7FC04462D482F
:103170000168204602F0E9FA28498860886802F070
:103180001FFD80464FF03332274B02F0EFFB8246A3
:10319000264A274B02F062FC00221346CDE90001CB
:1031A00002F022FD02D20020014627E01B49886878
:1031B00002F006FD80464FF033321B4B02F0D6FB87
:1031C00082461A4A1A4B02F049FC1A4A1A4BCDE9B8
:1031D000000102F021FD02D2164817490EE00F4906
:1031E000886802F0EDFC80464FF033320E4B02F05F
:1031F000BDFB82460D4A0E4B02F030FC06461DE038
:1032000000080140080002404C24014064050020F1
:103210000000B04000408F40007097402C06002016
:1032200000407F405000002033330D409C99999915
:103230009999E13FAE47E17A14AEEF3F0022054B8A
:1032400002F09AFB044602F0FFFC0349C860BDE8A7
:10325000FC9F0000000059402C06002008B5012109
:103260000C20FDF7DDFF4FF47070ADF80000032077
:103270008DF8020028208DF8030069465648FDF7B6
:1032800013FD6020ADF8000003208DF80200282017
:103290008DF8030069465148FDF706FD08BD10B5DD
:1032A00004464FF480714C48FDF791FD4C4908707D
:1032B0004FF400714848FDF78AFD494948704021A4
:1032C0004548FDF784FD4649887080214248FDF756
:1032D0007EFD4349C87020214048FDF778FD4149F3
:1032E000087040213D48FDF772FD3E49487010BD11
:1032F00010B5044634B1012C0AD0022C0ED0032C98
:1033000018D111E04FF480513348FDF77CFD11E0F6
:103310004FF400513048FDF776FD0BE04FF480414B
:103320002D48FDF770FD05E04FF400412A48FDF7F8
:103330006AFD00BF00BF10BD10B5044634B1012CBA
:103340000AD0022C0ED0032C18D111E04FF480517A
:103350002148FDF756FD11E04FF400511E48FDF7DE
:1033600050FD0BE04FF480411B48FDF74AFD05E09E
:103370004FF400411848FDF744FD00BF00BF10BDE9
:1033800038B50020009001210820FDF749FF0121F8
:103390004020FDF745FF4FF47040ADF800000320DA
:1033A0008DF8020010208DF8030069460A48FDF7E9
:1033B0007BFC00240CE0E0B2FFF7BEFFC820FFF763
:1033C000CAFCE0B2FFF794FFC820FFF7C4FC641CFE
:1033D000042CF0DB38BD0000000C01400008014067
:1033E000580000205C0000201FB501210420FDF7DB
:1033F00024FF5748FDF778FF4FF4FA60ADF8080056
:103400004720ADF804000020ADF80A00ADF8060032
:103410008DF80C0001A94E48FEF73AF81E208DF8F1
:10342000000001208DF8010000208DF8020001202D
:103430008DF803006846FCF78EFF01214448FEF733
:1034400049FE012211464248FEF799FB01214048FE
:10345000FEF77AFB1FBD1FB500200090019002907F
:10346000039001213A48FEF735FE012039494870A2
:10347000394801880088401C374A1080002905DD42
:1034800000201146088001203249887033480188A5
:103490000088401C314A1080012905DD00201146BA
:1034A000088001202B4948712D4801880088401C64
:1034B0002B4A1080042905DD0020114608800120D8
:1034C00024498872274801880088401C254A1080BA
:1034D000092905DD00201146088001201D490875D5
:1034E000214801880088401C1F4A10800B2905DDF7
:1034F0000020114608800120164948761B480188A3
:103500000088401C194A1080182906DD0020114649
:10351000088001200F4981F8320015480188008891
:10352000401C134A1080B1F5FA7F02DB00201146DF
:103530000880104801880088401C0E4A108040F620
:10354000C310814202DD0020114608801FBD00002B
:10355000000800404C0600206200002064000020AB
:10356000660000206C0000206E0000206A00002031
:10357000680000207000002010B54FF48020FDF797
:103580002AFB10BD10B500F0A5F910BD10B5002044
:10359000FDF7A6FD0121C805FDF74FFE10BD032074
:1035A0008B49086070478B48817A19B10521884A98
:1035B000116002E00121864A116070470EB54FF498
:1035C0008020FDF708FB4FF48020009008208DF844
:1035D000050001208DF806006846FDF785FA1420E5
:1035E0008DF8080006208DF8090000208DF80A00EB
:1035F00001208DF80B0002A8FCF7ADFE2A208DF803
:10360000080006208DF8090002A8FCF7A4FE0EBDF4
:10361000704710B5044601210420FDF701FE3CB1BE
:103620006D48006880B220F002006B49086014E029
:103630006948006880B240F0020067490860674846
:10364000006820F47F20654908600846006840F45F
:103650004C30086000206249086010BD30B50B4650
:10366000002100BF16E00A24B4EB107F05D93024F6
:1036700004EB107403F8114005E0412404EB1074CE
:103680000A3C03F81140000100254C00641C1D5544
:103690004C1CE1B29142E6DB30BD70B55148046884
:1036A000001D0568001D0668344454B108224E49C7
:1036B0002046FFF7D3FF04224B4910312846FFF77D
:1036C000CDFF70BD00204949A1F80201A1F8000119
:1036D0004749A1F80201A1F800010120704730B567
:1036E0000246434BB3F800315B1C414CB4F8024135
:1036F000A3421BD0002017E0135C3C4CB4F80041FF
:103700003B4D2B552B46B3F800315B1C2C46A4F8DF
:1037100000312346B3F80031B3F5807F02D1002396
:10372000A4F80031431C98B28842E5DB30BD2F4934
:10373000B1F800112D4A50541146B1F80011491C3E
:10374000A2F800111146B1F80011B1F5807F02D145
:103750000021A2F80011704770B504460D462E46B0
:10376000002304E0E05CFFF7E2FF581C83B2B342A1
:10377000F8DB70BD0FB438B505A800901D48009A5D
:10378000049902F0E9FB002000901A4801F07EFF46
:1037900085B2002405E01749085DFFF7C8FF601CEB
:1037A00084B2AC42F7DB38BC5DF814FB10B5FFF710
:1037B000EDFEFFF703FF01F029F90020FFF729FFD5
:1037C0006420FFF7C8FA0120FFF723FF10BD0000B7
:1037D0006C010020180A0020405C004004080140F1
:1037E000B0022142E8F7FF1F76000020B00600205B
:1037F000B4070020B808002070B53248B0F80201C4
:103800003049B1F80011884200D170BD2D48B0F8A0
:1038100002012C49B1F80011884208DA2948B0F8B1
:1038200000012849B1F80211401A84B205E0254888
:10383000B0F80201C0F5807084B2402C00DD402455
:103840002048B0F80251B0F8020120441D49A1F807
:1038500002010846B0F80201FF2802DD0020A1F8AD
:103860000201184948192246C02101F08BFA21466D
:10387000012001F0E8FC012001F06CFB00BFC4E76F
:1038800010B51149032001F0D4FE84B2E1B20E4814
:10389000FFF725FF032001F075FB10BD10B50B48A5
:1038A000006805280CD10A4801680068401C084AD5
:1038B0001060052904D1002011460860FFF79CFF25
:1038C00010BD0000B0060020B80900206C010020E7
:1038D0009000002010B588B000246948006869494C
:1038E00008800846008800F400706749098808408D
:1038F00050B14FF6FF506249086064480078401CA0
:1039000062490870FFF7CAFF5E48008800F4004073
:103910005D490988084008B101F096F859480088C7
:1039200000F4806058490988084030B14FF6FF30F4
:10393000534908605649486880475248008800F457
:10394000005051490988084018B14DF6FF704C49A4
:1039500008604C48008800F480504B4909880840B2
:1039600030B14EF6FF7046490860002000F039FA89
:103970004448008800F4006043490988084060B169
:103980004448007810B100F0D6F902E0022000F0BF
:1039900028FA4FF2FF703A4908603A48008800F46C
:1039A0008070394909880840002866D04FF6FF60CA
:1039B00033490860081D006800F40040002856D014
:1039C00035480068401C34490860084600680328F0
:1039D00050D92B48001F006800F00800002849D18A
:1039E0002748001F006880B22C490860002408E0C6
:1039F0002B4901EB8400D0F8000C80B24DF8240074
:103A0000641C082CF4D32548006840F001002349C9
:103A100008600846006880B21949091F08601F48FD
:103A2000006820F001001D4908600846006880B267
:103A30001349091F086000BF1148006800F4806046
:103A40000028F9D04FF6FF300D490860002408E047
:103A50005DF8240080B2124A02EB8401C1F8000C28
:103A6000641C082CF4D300200B49086002E00020FD
:103A700009490860072000F0B4F908B010BD000043
:103A8000445C0040940000208A0100209600002041
:103A9000E800002070010020980000209C00002019
:103AA0000050004010B5FFF7F8FD00208349096879
:103AB000887200F017F901F097FD00208049086036
:103AC00010BD10B500207D49096888727D48C07915
:103AD0007A4909684872002078490968C87201F07B
:103AE0009DF94FF40071002001F0B2F9102100207F
:103AF00001F0C7F94021002001F081FB8021002066
:103B000001F071FB002001F079FA6F4890F82C1059
:103B1000002001F0BAFB002001F034FA002101205E
:103B200001F096F9C021012001F05DFB2021012068
:103B300001F0A7F90021012001F0C1F94FF4C061A3
:103B4000022001F085F94FF48071022001F04BFB57
:103B50000021022001F0B3F92021022001F091F9A7
:103B60000021032001F074F94FF48871032001F063
:103B700046FB4021032001F088FB4FF44051032015
:103B800001F09DF90021032001F07BF9002000F0F5
:103B9000AEFE01204A49086010BD4C48817A11B13F
:103BA0000521474A11607047042045490860704765
:103BB00010B547480078202804D1FFF783FD002086
:103BC0004349087010BD7047014629B908203B4A97
:103BD00012681082002070473E48FCE7014629B970
:103BE0000820364A12681082002070473948FCE7E6
:103BF00070B504460025212C09D1304800680078B2
:103C000000F07F00212810D1AFF22F050DE0202C0D
:103C10000BD12A480068007800F07F00212801D1EC
:103C2000AFF25B0520202A4908700DB9022070BD53
:103C300022480068856100212048006841820020F8
:103C4000A8470020F3E701461C480068007800F010
:103C50007F00212807D1022901D1002070472229A5
:103C600001D10020FAE70220F8E710B504461A490E
:103C7000204600F032FB10BD10B50446174920461F
:103C800000F02BFB10BD70B505460C480068C478E9
:103C9000042C01DD002070BD114800EBC401284652
:103CA00000F01BFBF7E70246002901DD0220704708
:103CB000012A01DD0220FAE70020F8E78001002058
:103CC0006C01002042680008E8000020180A00206B
:103CD000D8000020DC0000203C010020440100202E
:103CE0004C01002010B50120FFF792FC01246D4823
:103CF000046000206C490880084600886949086013
:103D00000020091D08604FF4E0506749088008460C
:103D1000008864490860002010BD10B50120614989
:103D200008600020091D0860FFF772FC03205D4950
:103D30000860002010BD38B50025002000905948CB
:103D4000006884B200BF09E0584901EB8500D0F853
:103D5000000C80B2564941F825006D1C082DF3D3A4
:103D600044F480644F48046044F00104046024F08B
:103D70000104046000BF4B48001D006800F480602F
:103D80000028F8D04FF6FF304649091D086000258D
:103D900009E0474850F8250080B2444A02EB85010B
:103DA000C1F8000C6D1C082DF3D344F008043D4805
:103DB0000460006884B244F004043A480460FFF7E9
:103DC000EEFB38BD10B53748006884B224F0040417
:103DD00034480460FFF7E7FB4FF43F403149086087
:103DE00010BD70B50546072D01D032480570314829
:103DF000007808284ED2DFE800F004111A202B3892
:103E00004E4F2D48006828B9FFF7DCFF06202949EE
:103E1000087002E005202749087041E0FFF7D2FF53
:103E200004202449087001202349086038E002205A
:103E3000204948700320087032E01E484078401E38
:103E40001C4948700846407808B90420087027E0EB
:103E50001448006884B244F010041248046005203D
:103E6000144908700A2048701AE012484078401E31
:103E7000104948700846407858B90A48006884B22A
:103E800024F01004074804600620087000200A4946
:103E9000086005E000BF00BF06200649087000BFAB
:103EA00000BF70BD405C00408A010020005000400F
:103EB000F8090020710100207401002010B50446AB
:103EC0002CB90120F64909680882002010BDF54987
:103ED000096808688047F24800680A30F6E710B5BC
:103EE000EF480068C078F0494978884213DCEC4814
:103EF0000068807878B9EA480068808858B9E8484E
:103F00000068C078E64909688872E6490968486827
:103F10008047002010BD0220FCE710B504462CB9F4
:103F20000120DF4909680882002010BDDD490968C9
:103F300088688047DA4800680C30F6E710B5D84B3F
:103F40001B68D978D64B1B685879D84B1B689A697F
:103F500090470446D2480068807AE8B13CB9D0481E
:103F60000068007918B9CE480068807808B102204E
:103F700010BD8CB9CB490968C8688047C84800683B
:103F80004079C7490968C872C5480068C078C44903
:103F9000096808730020EBE70220E9E710B5044642
:103FA0002CB90220BE4909680882002010BD0020FB
:103FB000BF490880BA480068007800F07F0018BB4D
:103FC000B7490968487A00F0200131B1B849097849
:103FD00041F00201B64A117005E0B549097801F0D7
:103FE000FD01B34A117000F0400131B1B0490978C8
:103FF00041F00101AE4A117005E0AD49097801F0C8
:10400000FE01AB4A11703AE0A5480068007800F064
:104010007F00012801D1A648C8E7A14800680078C0
:1040200000F07F00022828D19D4A1268517901F0E2
:104030000F0001F080027AB19E4B03EB8002D2F8B0
:10404000002C02F03002102A16D1994A127842F060
:104050000102974B1A700FE0964B03EB8002D2F8E7
:10406000002C02F44052B2F5805F05D1904A1278DC
:1040700042F001028E4B1A7001E0002096E7894958
:104080000968086980478A4890E72DE9F047844825
:104090000068007800F07F08B8F1000F0AD180486E
:1040A0000068407A00F0DF007D490968487200200E
:1040B000BDE8F087B8F1020F7ED1794800684088EA
:1040C00018B977480068007908B10220F0E7DFF8F6
:1040D000D89173480068477927F080052C467048CE
:1040E0000068407900F0800038B1724901EB84002B
:1040F000D0F8000C00F0300606E06E4901EB8400B9
:10410000D0F8000C00F4405699F80000A84204D9F9
:104110001EB163480068807A08B90220C8E707F03A
:10412000800080B1634901EB8400D0F8000C00F0FE
:10413000300010284BD1E0B201F01DF8E0B2302180
:1041400000F09FFE43E05B4901EB8400D0F8000CD7
:1041500000F44050B0F5805F39D1E4B9564A92F886
:104160002C10E0B201F091F8524A02EB8401D1F830
:10417000001C4BF68F7201EA020080F4805080F43C
:10418000005040F4004141F080014A4B03EB8402AF
:10419000C2F8001C1BE0E0B200F0D5FF454A02EB7C
:1041A0008401D1F8001C4BF68F7201EA020080F402
:1041B000805080F4005000E00FE040F4004141F0F6
:1041C00080013C4B03EB8402C2F8001C00BF354960
:1041D00009684869804700206AE700BF022067E756
:1041E0002DE9F0412E480068467926F080073C46CC
:1041F0002B480068407900F0800038B12D4901EB70
:104200008400D0F8000C00F0300506E0294901EBED
:104210008400D0F8000C00F4405523480078A042F8
:1042200008D91F480068408820B91DB11C480068A3
:10423000807A10B90220BDE8F08106F08000A0B1BC
:104240001C4A02EB8401D1F8001C48F6BF7201EA57
:10425000020080F0100040F4004141F08001154B55
:1042600003EB8402C2F8001C14E0124A02EB840142
:10427000D1F8001C4BF68F7201EA020080F48050E6
:1042800040F4004141F080010A4B03EB8402C2F884
:10429000001C00BF03490968886980470020CAE7FD
:1042A000800100208C010020E40000208401002017
:1042B0007801002000500040E800002010B5F748C9
:1042C0000068407A40F02000F44909684872F449D7
:1042D0000968C8698047002010BD10B50246EF4844
:1042E0000068438A32B98888C01AEC4C246820825E
:1042F000002010BD08681844FBE72DE9F041E748AD
:10430000006800F110042688A068C0B1BEB1A5887D
:10431000B54200D93546A8B2A1688847074620882B
:10432000401B2080608828446080002000F07FFFD0
:104330008046AAB24146384600F03EFD00BF2088C4
:1043400050B14FF44050D74908800021084600F092
:104350007AFF3020D44908802088A188884204DB75
:104360000320CE490968087218E02088002804DD7F
:104370000520CA490968087210E0208870B9062033
:10438000C649096808720021C848006880B2801CCC
:10439000C74A42F810103020C3490880BDE8F081B8
:1043A0002DE9F047BD48006800F110052E88BB4894
:1043B0000068077AD6B9042F18D1BE4800780128C2
:1043C0000FD10021B948006880B2801CB84A42F879
:1043D00010103020B449088000BF0020B549087093
:1043E00003E007271020B049088027E0AC88A642E8
:1043F00001D8042000E002200746B44200D9344628
:10440000A0B2A96888478046002000F005FF8146D9
:10441000A2B24946404600F0B5FCA1B2002000F02F
:1044200012FF2888001B288068882044688030207C
:104430009D49088000029B49088000BF9749096890
:104440000F72BDE8F08770B5022694480068447882
:1044500092480068007800F07F00002844D1092CC1
:1044600003D1FFF73CFD06465FE0052C14D18B48D5
:104470000068C0787F280BDC88480068807838B9ED
:1044800086480068808818B984480068807A08B136
:10449000082565E0002648E0032C0ED17F4800681F
:1044A000C078012807D17D480068808818B9FFF7D7
:1044B00005FF064639E0022637E0012C35D1774862
:1044C0000068C07801280DD174480068808848B918
:1044D00072480068407A00F0200018B1FFF7D5FD5F
:1044E000064622E0022620E06C480068007800F0D2
:1044F0007F00012805D10B2C17D1FFF71FFD0646C1
:1045000013E066480068007800F07F0002280BD1B5
:10451000012C03D1FFF7B9FD064606E0032C04D1B8
:10452000FFF75EFE064600E002264EB1E0B2624AA8
:104530001268516988470646032E01D109250FE00C
:104540000EB108250CE0062500215848006880B20D
:10455000801C574A42F8101030205349088000BF91
:104560004E4909680D7270BD2DE9F84F4B4800683F
:1045700045780027BA46062D1BD1484800680078C8
:1045800000F07F00002813D1444909688878012889
:1045900003D149490968CF690AE0022803D1464995
:1045A00009680F6A04E0032802D1434909684F6A89
:1045B000ADE0002D67D1394800684088002862D1FD
:1045C00036480068C08802285DD134480068007908
:1045D000002858D131480068007800F07F0030B9D9
:1045E0002E480068808810B9AFF24F678FE02B48E3
:1045F0000068007800F07F00012811D12749096880
:1046000048792D4909688A690021904700287ED1A0
:1046100022480068807A002879D0AFF27F6776E080
:104620001E480068007800F07F0002286FD11B4808
:104630000068407900F00F0618480068407900F0E3
:10464000700916480068407900F0800038B11B49B5
:1046500001EB8600D0F8000C00F0300806E01749A6
:1046600001EB8600D0F8000C00F4405814480078A4
:10467000B0424CD9B9F1000F49D1B8F1000F46D082
:10468000AFF2E76743E0082D1CD1044800680078CA
:1046900000F07F00D8BBAFF2DB7738E0800100206C
:1046A0008C0100209001002092010020505C00400D
:1046B000006000407A01002084010020005000408A
:1046C000E40000200A2D22D1C5480068007800F0DF
:1046D0007F0001281BD1C2480068807AB8B1C04869
:1046E0000068408898B9BE480068007978B9BC482D
:1046F0000068C08801280AD1B94909684879B949D0
:1047000009688A690021904708B9AFF2F17757B17B
:10471000B3480068A0F812A0B14800688761002083
:10472000B84700240FE0AE4A12685078AD4A1268CC
:10473000116988470446032C05D10920A849096856
:104740000872BDE8F88FA6480068008A4FF6FF712E
:10475000884204D10920A24909680872F1E7022CB5
:1047600003D09F480068008A20B908209C49096846
:104770000872E6E79A480068007800F08000E0B32D
:1047800097480068C088009095480068008A0099A2
:10479000884204D9924900980968088223E0904829
:1047A0000068008A8E490968C98888421BDA8C48EB
:1047B0000068008A8B49096891F82C10884203DA56
:1047C0000020894908700EE085480068008A854904
:1047D000096891F82C1090FBF1F201FB120010B95E
:1047E0000120814908707F48006890F82C107C48AF
:1047F00000688182FFF7D4FD07E0FFE703207849D6
:104800000968087200037949088000BF99E710B56C
:10481000774890F82C10002000F037FD70480068B1
:10482000007A082805D1400270490880102071499B
:1048300008806B480068007A092801D1012010BD6A
:104840000020FCE738B501246B48006880B2001DE9
:104850006A4931F8100080B201EB400000906048D6
:104860000068007A092832D0009800785C4909680D
:1048700008700098401C009000980078584909681A
:1048800048700098401C0090009800EB4400009095
:10489000009931F8020B009100F0A0FE5049096820
:1048A0004880009800EB44000090009931F8020B1A
:1048B000009100F093FE4A4909688880009800EB57
:1048C000440000900098008845490968C88001208C
:1048D00043490968087242480068C08810B9FFF768
:1048E000B2FD01E0FFF740FEFFF791FF38BD30B5A4
:1048F0000146434B1A78002014E00306414C04EBB8
:104900009353D3F8003C48F68F74234048F2800458
:104910002343C4B2234304063A4D05EB9454C4F830
:10492000003C401C9042E8D341F08003324C241FED
:10493000236030BD10B52A480068047A022C01D0EB
:10494000042C05D1FFF72CFD25480068047A1CE0F3
:10495000062C19D122480068407805280ED120483D
:104960000068007800F07F0040B91D490968C878E8
:10497000FFF7BDFF24490968086A8047194909689B
:1049800088688047082400E00824154909680C72EB
:10499000FFF73DFF10BD10B511480068047A022CE6
:1049A00001D0042C01D1082412E0032C01D0052CE5
:1049B00005D1FFF7A2FC0A480068047A08E0072C3A
:1049C00005D108490968C8688047082400E0082420
:1049D000034909680C72FFF71AFF10BD7047000009
:1049E00080010020840100207A0100209001002035
:1049F000E800002092010020505C00400060004070
:104A0000E4000020005000408C01002010B5084850
:104A100008490860022009680872074807490860C9
:104A2000074808490860054909680868804710BDBB
:104A3000180A002080010020E800002084010020E6
:104A4000180100208C01002008B50020009022E110
:104A5000C448008800F00F00C34908700846007879
:104A600000287CD1C1480068C149088008460088F8
:104A700000F03000BF490880BD48008800F4405075
:104A8000BB490880B94909684BF6BF7201EA0200C8
:104A900080F4005080F0200040F4004141F080019B
:104AA000B24A1160AF48008800F0100090BB104679
:104AB000006848F60F71084011460860FFF73AFF9A
:104AC000AA4909684BF6BF7201EA0200A8490988A1
:104AD00001F4805109B180F48050A549098801F49E
:104AE000005109B180F40050A249098801F0100179
:104AF00009B180F010009F49098801F0200109B137
:104B000080F0200081B241F4004141F08001974AD9
:104B1000116008BDFFE79548006880B20090BDF8BD
:104B2000000000F40060B0B390480068C0F30E00CD
:104B300048F68F7108408D490860FFF783FE8B4966
:104B400009684BF6BF7201EA02008949098801F43D
:104B5000805109B180F480508549098800E056E011
:104B600001F4005109B180F400508249098801F034
:104B7000100109B180F010007E49098801F0200180
:104B800009B180F0200081B241F4004141F0800180
:104B9000764A1160BDE7FFE7BDF8000000F4004071
:104BA000002878D071480068C0F30E0048F68F7175
:104BB00008406E490860FFF7EEFE6C4909684BF645
:104BC000BF7201EA02006A49098801F4805109B103
:104BD00080F480506649098801F4005109B180F4DD
:104BE00000506449098801F0100109B180F01000FB
:104BF0006049098801F0200109B180F0200081B2EC
:104C000041F4004141F08001584A116081E7564863
:104C10000078594901EB8000D0F8000C80B2009078
:104C2000BDF8000000F40040C0B14F48007801EB2F
:104C30008000D0F8000CC0F30E0048F68F710840D9
:104C4000494909784C4A02EB8101C1F8000C4649F8
:104C50000978491E494A52F821008047BDF80000F2
:104C600000F08000B8B140480078434901EB800073
:104C7000D0F8000C48F60F7108403B4909783E4ACD
:104C800002EB8101C1F8000C37490978491E3C4A02
:104C900052F82100804735484430006880B23149DD
:104CA000088000F4004000287FF4D2AE00BF30E757
:104CB00010B500244AE047F6FF702C4944310860E3
:104CC0002848008800F00F0027490870084600783F
:104CD000294901EB8000D0F8000C84B204F40040B4
:104CE000C8B12148007801EB8000D0F8000CC0F377
:104CF0000E0048F68F7108401B4909781E4A02EBE6
:104D00008101C1F8000C18490978491E1B4A52F864
:104D1000210080471AE004F08000B8B11248007802
:104D2000154901EB8000D0F8000C48F60F710840DF
:104D30000D490978104A02EB8101C1F8000C0A49BB
:104D40000978491E0E4A52F821008047074844302E
:104D5000006880B20349088000F400400028AAD10E
:104D600010BD0000940000207C010020005C004089
:104D7000900100209201002000500040BC00002063
:104D8000A0000020F0B5144604F1010C4FEA6C07B6
:104D9000DFF848C00CEB41033D460AE00678401CB2
:104DA00090F800C046EA0C2223F8022B9B1C401C02
:104DB0006D1E002DF2D1F0BDF0B5561C7510074EDA
:104DC00006EB41042B4605E034F8047B20F8017B18
:104DD000401C5B1E002BF7D1F0BD000000600040BE
:104DE000FA4908607047F948006880B27047F7498F
:104DF000091D08607047F548001D006880B27047C3
:104E0000F2480830006880B27047F0490C31086001
:104E10007047EE480C30006880B270474FF6F8716A
:104E20000140EA4A103211607047E84810300068CB
:104E300080B27047E64B03EB8002C2F8001C70475B
:104E40000146E34A02EB8100D0F8000C80B27047C3
:104E500010B5DF4B03EB8002D2F8002C48F68F131D
:104E60001A400A43DA4C04EB8003C3F8002C10BD4F
:104E70000146D74A02EB8100D0F8000C00F4C06074
:104E8000704730B5D24C04EB8003D3F8003C48F6B1
:104E9000BF7403EA040201F010030BB182F01002A8
:104EA00001F020030BB182F0200242F4004343F0F2
:104EB0008003C74D05EB8004C4F8003C30BD30B51D
:104EC000C34C04EB8003D3F8003C4BF68F7403EA29
:104ED000040201F480530BB182F4805201F40053B8
:104EE0000BB182F4005242F4004343F08003B84D0A
:104EF00005EB8004C4F8003C30BD30B503460C46D9
:104F00001846FFF79DFF0546012C07D125F4805078
:104F1000AF4A02EB8301C1F8000C08E0022C06D175
:104F200025F01000AA4A02EB8301C1F8000C30BD45
:104F30000146A74A02EB8100D0F8000C00F03000D7
:104F400070470146A24A02EB8100D0F8000C00F441
:104F50004050704710B59E4B03EB8002D2F8002CF6
:104F600048F6BF7302EA030181F0100181F02001CD
:104F700041F4004242F08002954C04EB8003C3F8F8
:104F8000002C10BD10B5924B03EB8002D2F8002C20
:104F90004BF68F7302EA030181F4805181F40051D2
:104FA00041F4004242F08002894C04EB8003C3F8D4
:104FB000002C10BD864A02EB8001D1F8001C41F4A0
:104FC000807148F68F72114048F280021143804B85
:104FD00003EB8002C2F8001C70477D4A02EB80019F
:104FE000D1F8001C48F68F62114048F2800211434C
:104FF000774B03EB8002C2F8001C7047744A02EB47
:105000008001D1F8001C48F68F62114048F28002FE
:1050100011436F4B03EB8002C2F8001C70476C4ACF
:1050200002EB8001D1F8001C41F4807148F68F72C8
:10503000114048F280021143654B03EB8002C2F835
:10504000001C7047624A02EB8001D1F8001C41F459
:10505000807148F68F72114048F2800211435C4B18
:1050600003EB8002C2F8001C7047594A02EB800132
:10507000D1F8001C48F68F62114048F280021143BB
:10508000534B03EB8002C2F8001C70470146504AA4
:1050900002EB8100D0F8000C00F03000102801D1A4
:1050A000012070470020FCE70146494A02EB8100DD
:1050B000D0F8000C00F44050B0F5805F01D1012021
:1050C00070470020FCE7424A02EB8001D1F8001C47
:1050D000C1F30E0148F68F7211403D4B03EB800285
:1050E000C2F8001C70473A4A02EB8001D1F8001C5C
:1050F00048F60F721140364B03EB8002C2F8001CD9
:105100007047334A02EB8001D1F8001C48F68F72D9
:1051100011404CF2800211432D4B03EB8002C2F888
:10512000001C70472A4A02EB8001D1F8001C48F6A7
:105130008F72114048F2C0021143254B03EB8002ED
:10514000C2F8001C7047224A02EB8001D1F8001C13
:1051500001F4804171B102EB8001D1F8001C48F6E6
:105160008F7211404CF280021143194B03EB800205
:10517000C2F8001C7047164A02EB8001D1F8001CEF
:1051800001F0400171B102EB8001D1F8001C48F63A
:105190008F72114048F2C00211430D4B03EB8002A5
:1051A000C2F8001C704710B5094B03EB8002D2F81F
:1051B000002C48F68F731A4048F280031A430A43C2
:1051C000034C04EB8003C3F8002C10BD405C00408E
:1051D000005000400146FC4A02EB8100D0F8000C70
:1051E00000F00F00704710B54A105200F74B1B68D3
:1051F0009BB203EBC003F64C44F8132010BD10B56E
:105200004A105300F14A126892B202EBC002121D1A
:10521000EF4C44F8123010BD0146EC48006880B2F3
:1052200000EBC100EA4A32F8100080B27047014634
:10523000E648006880B200EBC100001DE44A32F885
:10524000100080B27047E14A126892B202EBC002CD
:10525000921CDF4B43F81210704702463E290BDDCB
:10526000481101F01F030BB9431E98B24FF40043DD
:1052700043EA8023136007E0481001F001030BB1FB
:10528000431C98B283021360704710B50246CF48A2
:10529000006880B200EBC200801DCD4C04EB4003DF
:1052A0003E290BDD481101F01F040CB9441EA0B2C9
:1052B0004FF4004444EA80241C6007E0481001F0E9
:1052C00001040CB1441CA0B284021C6010BD014654
:1052D000BE48006880B200EBC100801CBC4A32F8B6
:1052E0001000C0F3090070470146B848006880B25A
:1052F00000EBC100801DB64A32F81000C0F309006F
:10530000704730B54B105B00B04C2468A4B204EB7E
:10531000C004AF4D45F8143053105C00AB4B1B6814
:105320009BB203EBC0031B1D45F8134030BD10B505
:105330004A105200A54B1B689BB203EBC003A44C60
:1053400044F8132010BD10B54A1053009F4A12684C
:1053500092B202EBC002121D9D4C44F8123010BDF7
:1053600001469A48006880B200EBC100984A32F8C2
:10537000100080B2704701469448006880B200EB8C
:10538000C100001D924A32F8100080B2704730B55B
:105390000B46012B1FD18D49096889B201EBC00171
:1053A000891C8B4D05EB41043E2A0BDD511102F0A7
:1053B0001F050DB94D1EA9B24FF4004545EA8125E0
:1053C000256007E0511002F001050DB14D1CA9B296
:1053D0008D0225600AE0022B08D17C49096889B258
:1053E00001EBC001891C7A4C44F81120012B1FD11C
:1053F0007649096889B201EBC001891D744D05EB3E
:1054000041043E2A0BDD511102F01F050DB94D1E5E
:10541000A9B24FF4004545EA8125256007E0511007
:1054200002F001050DB14D1CA9B28D0225600AE004
:10543000022B08D16549096889B201EBC001891DB9
:10544000634C44F8112030BD30B5034601291FD10B
:105450005E48006880B200EBC300801C5C4D05EB29
:1054600040043E2A0BDD501102F01F050DB9451E08
:10547000A8B24FF4004545EA8025256007E05010AA
:1054800002F001050DB1451CA8B2850225600AE0B5
:10549000022908D14D48006880B200EBC300801C8F
:1054A0004B4C44F8102030BD30B5034601291FD1C4
:1054B0004648006880B200EBC300801D444D05EBF8
:1054C00040043E2A0BDD501102F01F050DB9451EA8
:1054D000A8B24FF4004545EA8025256007E050104A
:1054E00002F001050DB1451CA8B2850225600AE055
:1054F000022908D13548006880B200EBC300801D46
:10550000334C44F8102030BD01463048006880B26A
:1055100000EBC100801C2E4A32F81000C0F30900D5
:10552000704701462948006880B200EBC100801D29
:10553000274A32F81000C0F309007047014623489B
:10554000006880B200EBC100801D214A32F81000D3
:1055500000F47C4008B1012070471C48006880B20C
:1055600000EBC100801C1A4A32F81000C0F3090099
:1055700008B10220F0E70020EEE710B5012910D1B4
:10558000114B03EB8002D2F8002C48F68F731A40BF
:1055900048F2C0031A430C4C04EB8003C3F8002C00
:1055A00011E002290FD1084B03EB8002D2F8002C46
:1055B00048F68F731A404CF280031A43024C04EBF6
:1055C0008003C3F8002C10BD00500040505C004028
:1055D00000600040024641EA022070470146CAB21C
:1055E0000B1243EA0220704700201D4908604FF467
:1055F0003F401C490880084600881949091F086077
:10560000002070472DE9F04104460E46154604F08F
:105610007F00FFF701FE0746AAB239463046FFF782
:10562000B1FBA9B204F07F00FFF70DFE0020BDE83A
:10563000F0812DE9F04104460E46002504F07F007C
:10564000FFF752FE054604F07F00FFF7F0FD074626
:105650002A4639463046FFF7AFFB2846BDE8F081C1
:10566000445C00408A010020D2B201E000F8012B26
:10567000491EFBD270470022F6E710B513460A46D2
:1056800004461946FFF7F0FF204610BD421C10F8F3
:10569000011B0029FBD1801A7047F0B480EA010297
:1056A000D40F4200B2EB410F02D202460846114627
:1056B0004A0042D0C30DDDB2C1F3C752AD1A202D4E
:1056C00035DAC1F3160141F4000204B15242C5F1CA
:1056D000200602FA06F12A411044B3EBD05F23D032
:1056E000C4B1012DA0EBC35009DCF0BC4FF0004267
:1056F00002EAC352DBB200F5000000F04CBB4000F0
:1057000000F1807000EBC350A0F1807040EAD170CE
:10571000490009E0490841EAC071A0EBC35000F517
:105720000000400800EBC350F0BC00F02BBB61420E
:10573000012202EB4101001BF6E7F0BC704781F04B
:105740000041AAE780F00040A7E780EA010210B517
:1057500002F00043400022D04A001FD0010E01EBAE
:105760001261C0F35600C2F3560240F4000042F446
:105770000002A0FB022000047F39140400D0401C6A
:1057800050EA124001D44000491EC2B20C0604EB9C
:10579000D010401C4008802A02D003E0002010BD39
:1057A00020F00100002900DA0020184310BD30B4B9
:1057B00080EA010202F0004530F0004221F0004092
:1057C00013D090B1C30DD40DC2F31601C0F316006F
:1057D000E41A41F4000140F400027D34914201D307
:1057E000641C00E04900002C02DA30BC0020704745
:1057F0004FF400000023914201D3891A034340086B
:105800004FEA4101F7D151B1914202D14FF000412D
:1058100005E002D24FF0010101E06FF0010103EB5E
:10582000C450284430BC00F0ADBA2DE9FE4F80468C
:1058300081EA0300C00F0C46009021F0004123F0E4
:105840000045B8EB0200A94105D2404621469046EA
:105850001C460B46024623F00040104347D0270D5C
:10586000C7F30A00C3F30A510290401A019040287E
:105870006BDAC3F3130040F4801B0098924620B10A
:105880000023D2EB030A63EB0B0B01985946C0F1DE
:105890004002504600F045FA06460D46504659462D
:1058A000019A00F05DFA10EB08006141002487EADC
:1058B000115284EAE7731A4340D0009A62B3019A06
:1058C000012A4FEA075215DC001B61EB02014FF081
:1058D000004202EA0752CDE90042001C41F5801166
:1058E00032462B4600F094FA03B0BDE8F08F4046F4
:1058F0002146F9E7001B61EB0201001C41F5801312
:1059000000185B412018A2F5001747EB030140EA9D
:10591000D570B6196D4111E06D084FEA360645EABB
:10592000C0754FEA0752001B61EB0201001C41F5F4
:10593000801149084FEA30000019514132462B4688
:1059400003B0BDE8F04F00F054BA009801224000C7
:105950000023D0EB020263EBE073009821464FEA8C
:10596000E074B8EB000061EB0401E9E783F0004369
:105970005BE781F0004158E72DE9FE4F81EA03041F
:1059800004F0004421F0004100944FF0000B23F09C
:10599000004350EA01045ED052EA03045BD0C3F333
:1059A0000A54C1F30A552C44A4F2F3340194A0FB29
:1059B0000254C1F3130141F48011C3F3130343F400
:1059C000801301FB024400FB034E840A970A44EA59
:1059D000815447EA8357A4FB076802958D0A05FBAB
:1059E00007854FEA932C04FB0C542705029D4FEAD0
:1059F000065847EA1637B5EB08056EEB070C870E1D
:105A0000920E47EA811742EA8312A7FB0201B6EB26
:105A10000B0164EB00042B0D43EA0C335E1844EBDE
:105A20001C50DA465146E7FB0201C5F313044FEA66
:105A30000B3343EA14534FEA0432019C43EA060352
:105A4000A4F10C040294009CCDE900B400F0E0F94C
:105A500003B0BDE8F08F00200146F9E72DE9F04DD5
:105A600081EA030404F0004B21F0004514464FF096
:105A7000000A23F0004150EA050220D054EA010256
:105A80001DD0C5F30A570246C5F31303C1F3130033
:105A9000C1F30A5640F4801543F48013A7EB0608BF
:105AA000101BD64608F2FD3873EB050002D308F14F
:105AB000010801E092185B41B8F1000F03DA002001
:105AC0000146BDE8F08D00204FF480110646844663
:105AD0000EE0171B73EB050705D3121B63EB0503E1
